:020000040000FA
:100000000212F6022003FFFFFFFFFF02200BFFFF9B
:10001000FFFFFF020E56FFFFFFFFFF02201BFFFF47
:10002000FFFFFF022023FFFFFFFFFF02202BFFFF48
:10003000FFFFFF022033FFFFFFFFFF020E99FFFFCC
:10004000FFFFFF022043FFFFFFFFFF02204BFFFFE8
:10005000FFFFFF022053FFFFFFFFFF02205BFFFFB8
:10006000FFFFFF022063FFFFFFFFFF02206BFFFF88
:10007000FFFFFF022073FFFFFFFFFF02207BFFFF58
:10008000FFFFFF022083FFFFFFFFFF02208BFFFF28
:10009000FFFF70DFFFFF040000000002000000C847
:1000A0000300030369A5020269A501000000000026
:1000B00004003273000074F812103D900393E06066
:1000C0001590030274FEF0900304744DF0A37405C0
:1000D000F07A011206877F0102115A74F712103D5F
:1000E00074FF1212627E00801F851882851983E0DA
:1000F00064FE70069003877401F085188285198369
:10010000E0F8900384E068F07C017D00AA18AB1948
:10011000120E118B09EA450970030201E985188264
:10012000851983E064EF70027E07E0C0E0900387EA
:10013000E0F8900385E0FAE82AF8E434001206D7E4
:10014000D0E0F0900387E060A014600E14602A14E1
:10015000603A14605014606680A0900384E4F085D7
:100160001882851983E0900386F0C39480900387FA
:100170004003E4808474028080851882851983E0BE
:10018000900382F090038774030200F9851882853A
:100190001983E0900383F0900386E0601990038751
:1001A00074040200F9900385E004F0F8900386E0FF
:1001B0006860030200FA90038774050200F9900357
:1001C00085E4F0900387F0900384E0F88518828539
:1001D0001983E06860030200FA900382E0644D60D6
:1001E000030200FA12031E8002EEF9740112122EAD
:1001F0007F0202115A74F712103D74FB121262EA68
:10020000FEEBFF75080475090078081212C6740227
:100210001212DF7A907B007904120EBA7402121265
:100220002E120679121330E0687003A3E069701291
:10023000851882851983E0F47003A3E0F46003025B
:1002400002FE74041212D71206E38A088B09A8086A
:10025000A9097402121330E8F0A3E9F07404121330
:1002600030E0600879011200B60203178518828514
:100270001983E0687003A3E0697076851882851998
:1002800083E0F47003A3E0F4701974021213307465
:1002900010F0A37420F08518828519837410F0A3E0
:1002A0007420F075080175090078081212C67402EE
:1002B0001212DF7A247B08120F3E740212122E757E
:1002C000080478081212C674021212DF7A907B00BA
:1002D0007904120EBA740212122E12067912133019
:1002E000E0687003A3E069700479028006790480F5
:1002F0000279031200B68E828F83741E80058E826F
:100300008F83E4F0120679121330E0687003A3E0E3
:1003100069700479018002790074050201ED74EBC3
:1003200012103D74F8121262900307E0FA9003066F
:10033000E0FBFCEAF8E4C8F9EC28FEE93408FF75B4
:100340001001750D00750C068E088F09740278086F
:1003500012128DC39508F8E49509F9740228F50E78
:10036000740339F50FE50E2497F514E50F3420F5E5
:1003700015EE2410F508E43FF5098E128F13740969
:1003800078121212E785120A900383E01460541465
:1003900070030204601470030204E114601024FE70
:1003A000700302059C14700302064C02065C750C77
:1003B00003794E120C4F90030712066F7402F0A3DC
:1003C000744012066D740812066DF0A3F0751012D9
:1003D000AA10A90D120687A90C740812122E7F0EFE
:1003E00002115A750C04794E120C4FEEF8EF5401BD
:1003F000F9E8497005A90A120FA6C3EE9425EF94F7
:1004000008503FC3E5089424E50994084034E50EFC
:100410002496F8E50F3420F988828983E0701E85E0
:100420001482851583E070159003887401F088822A
:10043000898374A5F08514828515838004900388D0
:10044000E4F075081075090078081212C67C087D62
:1004500003EEFAEFFB120F3E740212122E0203D0CB
:10046000750C05C3E50A947995E04006750D010207
:1004700003D0750E40750F00780E1212C67C097DF0
:10048000038E0E8F0F7402780E12128DE50E54FC3F
:10049000FAE50F5407FBA90A120EBA740212122EC3
:1004A000900307E0A3F0900306E0A3F0751043C3A8
:1004B000EE9425EF940840030203D0C3E50894248A
:1004C000E509940850030203D0900388E07003020A
:1004D00003D0A814A91588828983E4F0A3F002034D
:1004E000D075080475090078081212C67402121239
:1004F000DF7A907B007904120EBA740212122E7405
:1005000002121330E0F8A3E0F9851882851983E020
:10051000687003A3E069851882851983700BE0F485
:100520007003A3E0F470578009E0F47003A3E0F4D3
:10053000700D8518828519837410F0A37420F01251
:100540000679121330E8F0A3E9F075080178081273
:1005500012C674021212DF7A247B08120F3E740254
:1005600012122E75080478081212C674021212DFD5
:100570007A907B007904120EBA740212122E1206BF
:1005800079121330E0687003A3E0697006750C01FE
:100590000203D0750C02750D070203D0900391E0A1
:1005A0006007640260030203D0EAFF7A0179001257
:1005B0000687E060030206408003120D11120D1B36
:1005C000E970F774041213301206617404121330C8
:1005D000780812131485080C85090D850A0E850B01
:1005E0000F9005A2780C1212B37404121330780C19
:1005F000121305E5084509450A450B70CE8EC2E584
:10060000C554E04FF5C5740412133012066174042A
:10061000121330780812131485080C85090D850A09
:100620000E850B0F9005A2780C1212B374041213EE
:1006300030780C121305E5084509450A450B70CEC4
:100640007A01790012068779080203D9EB900393A7
:10065000F070030203D0750C090203D0790602037F
:10066000D9E4F0A37426F0A3E4F0A3F022F0A3E40D
:10067000F0A3F0A3F0A3F0A322851882851983E0EC
:10068000F8A3E0F974022274F812103DEAFE900318
:1006900005E0D2E7F0E9A3F0EE900303F08E0874D2
:1006A000042AFE7A028004E062080AEAF83395E040
:1006B0001206D7EEFCC3E89CE99400A2D265D033C1
:1006C00040E5E508F0740128FC3395E0FD7A027BF3
:1006D00003120E410200D6F9740228F58274033920
:1006E000F5832274E912103D7582007583FE1211A4
:1006F000F58A168B177514007515008A828B83E4B2
:10070000F0900391E07006D2AAD2AF800464027028
:100710000579001200B6750C00750D20750E007578
:100720000F00900391E0600464027015120D111225
:1007300000DBE9F87409686003020813790012000D
:10074000B675080075090278081212C674021212F2
:10075000DF850C08850D09AA08E5095407FB850EFD
:100760000A850F0B740B7808121249A908120EBAE9
:10077000740212122E7E007F009005AAC0828E1095
:10078000EFF5113395E0F512F513850C08850D0989
:10079000850E0A850F0B780879101212A09005A615
:1007A00078081212B3758305D08278081211D650DA
:1007B0001D851882851983E5822EF582E5833FF534
:1007C00083E0F9AA14AB151208428A148B150EEEB9
:1007D00070010FC3EF940240A09005AE780C121286
:1007E000B39005B2780C1211D640030207227900AB
:1007F000AA14AB1512084279001208428B15900317
:1008000091E07004C2AFC2AAEA451570277AA57BB1
:10081000A58021E87003020741740668700302078F
:100820004174076870030207418516828517837437
:1008300001F080BA7582007583021211F57F1002F3
:10084000115A7808EB54806004D2F08002C2F0EABA
:1008500025E0FAEB33FBE9A2E7500474014AFAA25F
:10086000F0500874216AFA74106BFBE9C333F9186D
:10087000E870D12274F812103D780079008022745B
:10088000942EF582E43403F583E08A828B83F09022
:1008900004141209EF4005900414E4F008E8700114
:1008A00009900414E0FEA3E06E6007C3E89CE99D94
:1008B00040CDE8FAE9FB7F0102115A74F712103DAE
:1008C000900498E0FFA3E0FEF8EFC398F895E0F9F4
:1008D000EEC39FE8500B120AD170117800790080A6
:1008E0001B247F500109C39CE99D50EF7A007B00D7
:1008F0008041E004F0D2E908E8700109C3E89CE90E
:100900009D502C8A828B83E0C0E0900499E0FE74B5
:10091000182EF582E43404F583D0E0120AC1900465
:100920009AE4F0900499E0C3947F40C6E480C5E85F
:10093000FAE9FB7F0202115AC082C083C2E9900427
:1009400098E0F8A3E0686017741828F582E434048E
:10095000F583E0F5C1900498120AE84002E4F00241
:100960000D2F74F812103D7800790090051DE0708D
:1009700055A3E0705175F900C28FC284A28340FC78
:10098000A28F4004A28350F8AEF9C28FA283500414
:10099000D2848032EEC0E0E0FE1209E4D0E0F090B4
:1009A000051E120AE840D9E4F080D51209E4E08A75
:1009B000828B83F090051D1209EF400590051DE420
:1009C000F008E870010990051DE0FEA3E06E6007E5
:1009D000C3E89CE99D40D4E8497006E4F090051D09
:1009E000F00208B2749D2EF582E43404F58322E00F
:1009F00004120AC5C394802274F812103D9005A019
:100A0000E0FEF890059FE0FFEEC39FE0500DC39815
:100A1000F895E0F9120AD070188012C398F895E0A2
:100A2000F9E8247F500109C39CE99D4004EC4D7016
:100A3000077A007B00020ABE8A828B83E0F5F9A365
:100A4000AA82AB83780179008008E004F008E8709E
:100A50000109C3E89CE99D50278A828B83E0C0E0AE
:100A60009005A0E0FE741F2EF582E43405F583D0D6
:100A7000E0120AC19005A0E0C3947F40CDE480CC91
:100A8000C28FA28340FCC284A28F4004A28350F88C
:100A900090059F120ADBE0F5F9C28F90059FE0FAFE
:100AA000A3E06A90059F7005120ADB8005120AE830
:100AB0004002E4F0A28350D0D284E8FAE9FB0208B5
:100AC000B6120AC522F08A828B83A3AA82AB832244
:100AD000E824FF18E934FFF9E84922E0FA741F2AF4
:100AE000F582E43405F58322E004F0C39480227497
:100AF000FB121262C2009005CA7808121314900506
:100B0000CA7401F0A3F0A37469F0A374A5F0900572
:100B1000B678081212787004D20080159005BA7861
:100B2000081212786008E59D5418641070030220C2
:100B300000120C75A2005003020BF2AA18AB191296
:100B400001F5E97003020BF2851882851983E0C371
:100B5000943C500CE0F8743CC398FA95E0FB800498
:100B60007A007B00120D34E97003020BF2900391BE
:100B7000E06401700C75F800C2AB539AF7D2EA80BA
:100B80005E79071200B68003120D11120D1BE97079
:100B9000F77401121330E4F0A37426F0A3E4F0A379
:100BA000F07401121330780812131485080C8509AB
:100BB0000D850A0E850B0F9005A2780C1212B374E6
:100BC00001121330780C121305E5084509450A4552
:100BD0000B70CE758600C2AAC28B539AFBC2E990F5
:100BE000000174CDF0022000C2AF75C9AB75C95BBE
:100BF00080FE750800750900750A00750B009003EA
:100C000091E0701BD2AAD2AF79051200B6E0700352
:100C1000120D111200DBE9F8740968700980E97996
:100C20004E120C4F80ED74016870E2E07017120DE7
:100C3000119005BE78081212B39005C278081211FF
:100C4000D650EBC2AAC2AF75C9AB75C95B80FEC0F6
:100C500082C08378109005A1E0C399501575B60F36
:100C6000E5B4A2E750FAE5BBC39940F118E870ED8E
:100C7000E9F0020D2FC082C08353BEFBE59DA2E6C2
:100C800050FA0078F8790100120AD070FA75C6801F
:100C90007480659E70FA43BE049062707408F079A7
:100CA0004A120C4F90000174F5F07403F5D5748965
:100CB000F5D4A2A0E433900391F0A2E05029D284AD
:100CC00053F3F753F3EF53FDF743FD10538FF753EF
:100CD000F7DF43FC2043F10253F5DF75F82043F4BE
:100CE000F0D2FED2AB802853FF3F85FFFF53F1FEC9
:100CF00043F30C53F2F375868075C48090049BE433
:100D0000F0A3F075C2D875C50B75C4024386408048
:100D10001E8003120938A2E940F922C082C08390E4
:100D20000498E0F8A3E0686004790180027900D0BB
:100D300083D0822274F112103D74FF1212627E0081
:100D4000900391E06401706CC2849003927401F08E
:100D50007508388E098E0A8E0B7C017D00AA18ABAF
:100D600019120E118B0DEA450D6018851882851930
:100D700083E06410602DE064EF70088E088E098EA9
:100D80000A8E0B85080C85090D850A0E850B0F90C0
:100D900005A278081212B3E50C450D450E450F70FB
:100DA000347E01900391E064017056D284900392E6
:100DB000E4F08051D2AAD2AF8A088B09E4F50AF593
:100DC0000B9005C6780C1213147808790C120FBD1D
:100DD00079061200B6900391E06003020D59120DDE
:100DE000111200DBE9F8740968700779061200B681
:100DF00080917407686084E8608974066870A480D4
:100E000082C2AFC2AAEEF9740112122E7F0802113B
:100E10005AC082C083900391E07005120874801E4E
:100E2000900392E06015A28F500BE5F98A828B83C4
:100E3000F07A0180027A007B008003120962020DC1
:100E40002FC082C083900391E070051208BB80031D
:100E50001209F8020D2FC0E074F21210A3900001E5
:100E6000E064CD7005122013802AE064F57024E55B
:100E7000C1C28BC0E0900415E0F8749428F582E4B8
:100E80003403F583D0E0F0900415120AE84005E43D
:100E9000F08001007F01021102C0E074F21210A381
:100EA000900001E064CD700512203B800BE064F5FA
:100EB000700512093880010080DA74F512103D893E
:100EC00008740F5508F50A750B00740B780A121296
:100ED0008DEA2400F8EB3480F9E82400E9350BF9B9
:100EE00085C70AA2AFE433F509C2AFE508C4540FC1
:100EF000FAE5C754F84AF5C7740B121330E0FAA3A9
:100F0000E0FB801C88828983E08C828D83F088825C
:100F10008983A3A882A9838C828D83A3AC82AD83AD
:100F2000EAFEEBFFEE24FF1AEF34FFFBEE4F70D426
:100F3000850AC7E509A2E092AF7F0402115A74F74F
:100F400012103DECFEED900389F0EEA3F0A3746265
:100F5000F0A37473F0A3E0541FF07409121330E08F
:100F6000F508A3E0F509E508333354FC90038EF04F
:100F7000740678081212E7E50890038DF090038F4D
:100F80007412F0A37442F075D1FE75D601EA906236
:100F900071F0EBA3F0906270E0D2E1F0E0A2E740E4
:100FA000FB7F0202115AC082C083E9C33390627290
:100FB000F0906270E0D2E0F0D083D082220808087E
:100FC000EAC0E0EBC0E086F0E7A4FA180986F0E793
:100FD000A42AFA180986F0E7A42AFA180986F0E785
:100FE000A42AFA1986F0E7A4FBE5F02AFA19088684
:100FF000F0E7A42BFBE5F03AFA190886F0E7A42BFA
:10100000FBE5F03AFA18180986F0E7A4C5F02BFBC7
:10101000E43AFA1908E7C5F0C6A426F6E5F03BFB6A
:10102000E43AFA1886F0E7A4F6E5F00826F6E43B81
:1010300008F6E43A08F6D0E0FBD0E0FA222518C51D
:1010400082C0E0E51934FFC583C0E0E518C395828E
:1010500024F910AF088583198582188008858319C3
:10106000858218D2AFCEF0A3E520F0A37808E60879
:10107000F0A3DEFAEFF0A3E58124FBF8E608F0A385
:10108000E608F0A30808E608F0A3E608F0A3158137
:101090001581D0E0FED0E0F815811581E8C0E0EEC2
:1010A000C0E022C0D02518C582C0E0E51934FFC5D4
:1010B00083C0E0E518C3958224F310AF0885831937
:1010C0008582188008858319858218D2AFC8F0A35D
:1010D000E9F0A3EAF0A3EBF0A37908E709F0A3D8BD
:1010E000FAECF0A3EDF0A3EEF0A3EFF0A3D0E0F064
:1010F000A3D0E0F0A3D0E0F0A3E520F0A3E5F0F06A
:10110000A322851983851882E0C0E0A3E0F9A3E05B
:10111000FAA3E0FBA37808E0F608A3DFFAE0FCA35B
:10112000E0FDA3E0FEA3E0FFA3E0C0E0A3E0C0E099
:10113000A3E0F5D0A3E0F520A3E0A3F5F010AF08FD
:101140008583198582188008858319858218D2AF16
:10115000D082D083D0E0F8D0E03285198385188220
:10116000E0A3FEE0A3F5207808E0A3F608DFFAE0AC
:10117000A3FFE0A3C0E0E0A3C0E0E0A3C0E0E0A3E1
:10118000C0E010AF08858218858319800885821811
:10119000858319D2AFD083D08222E490030278A154
:1011A00079038002F0A3D8FCD9FA7AA27B059000DB
:1011B0008E782979018015E493A3AD82AE838A826B
:1011C0008B83F0A3AA82AB838D828E83D8E9D9E783
:1011D000120AEF12133AC008C3E096F50808A3E01C
:1011E00096420808A3E096420808A3E096450870D6
:1011F00001D3D00822C5822518C582C583351910B0
:10120000AF07F5198582188007F519858218D2AFC6
:10121000C583222518F58210AF08F518400C151962
:101220008008F51840021519D2AF8519832200C035
:10123000D0251810AF08F518500C05198008F518BE
:1012400050020519D2AFD0D0226016080808C6C3D4
:1012500013C618C613C618C613C618C613C6D5E0DB
:10126000EA22251810AF08F518400C15198008F56A
:101270001840021519D2AF22E066701008A3E0668C
:10128000700A08A3E066700408A3E06622700422D6
:10129000600D18C6C333C608C633C6D5E0F418229D
:1012A000E627F60809E637F60809E637F60809E6FC
:1012B00037F622E026F608A3E036F608A3E036F675
:1012C00008A3E036F62274028000C0E0F404121293
:1012D00013D0E0121323222518FAE43519FB222536
:1012E00018FCE43519FD22600C08C6C313C618C6E5
:1012F00013C6D5E0F42275D00075813F75180275CC
:10130000190302119AE6F008A3E6F008A3E6F00834
:10131000A3E6F022E0F608A3E0F608A3E0F608A3AF
:10132000E0F622CAC0E0E6F0A308DAFAD0E0FA223A
:101330002518F582E43519F5832200000080FBFFB3
:10134000FFFFFFFFFFFFFFFFFFFFFFFFFFFFFFFFAD
:10135000FFFFFFFFFFFFFFFFFFFFFFFFFFFFFFFF9D
:10136000FFFFFFFFFFFFFFFFFFFFFFFFFFFFFFFF8D
:10137000FFFFFFFFFFFFFFFFFFFFFFFFFFFFFFFF7D
:0A1FF600CA05094338860000000008
:020000040003F7
:01FFF000F020
:04000005000012F6EF
:00000001FF
