:020000040000FA
:100000000212FF022003FFFFFFFFFF02200BFFFF92
:10001000FFFFFF020E61FFFFFFFFFF02201BFFFF3C
:10002000FFFFFF022023FFFFFFFFFF02202BFFFF48
:10003000FFFFFF022033FFFFFFFFFF020EA4FFFFC1
:10004000FFFFFF022043FFFFFFFFFF02204BFFFFE8
:10005000FFFFFF022053FFFFFFFFFF02205BFFFFB8
:10006000FFFFFF022063FFFFFFFFFF02206BFFFF88
:10007000FFFFFF022073FFFFFFFFFF02207BFFFF58
:10008000FFFFFF022083FFFFFFFFFF02208BFFFF28
:10009000FFFF70DFFFFF040000000002000000C847
:1000A0000300030369A5020269A501000000000026
:1000B00004003273000074F8121046900393E0605D
:1000C0001590030274FEF0900304744DF0A37405C0
:1000D000F07A011206857F0102116374F71210464F
:1000E00074FF12126B7E00801F851882851983E0D1
:1000F00064FE70069003877401F085188285198369
:10010000E0F8900384E068F07C017D00AA18AB1948
:10011000120E1C8B09EA450970030201F38518824F
:10012000851983E064EF70027E07E0C0E0900387EA
:10013000E0FA900385E0F8EA28F8E43400F9740264
:1001400028F582740339F583D0E0F0900387E060EE
:100150009814600E14602C14603C14605214606893
:100160008098900384E4F0851882851983E09003D9
:1001700086F0C394809003874004E40200F974027F
:100180000200F9851882851983E0900382F09003BC
:100190008774030200F9851882851983E090038330
:1001A000F0900386E0601990038774040200F990D0
:1001B0000385E004F0F8900386E06860030200FA2B
:1001C00090038774050200F9900385E4F09003879B
:1001D000F0900384E0F8851882851983E068600355
:1001E0000200FA900382E0644D60030200FA1203F9
:1001F000288002EEF974011212377F020211637433
:10020000F712104674FB12126BEAFEEBFF7508043E
:1002100075090078081212CF74021212E87A907BE6
:10022000007904120EC574021212371206771213E7
:1002300039E0687003A3E06970128518828519831C
:10024000E0F47003A3E0F4600302030874041212E4
:10025000E01206DD8A088B09A808A90974021213A6
:1002600039E8F0A3E9F07404121339E06008790169
:100270001200B6020321851882851983E068700395
:10028000A3E0697076851882851983E0F47003A372
:10029000E0F4701974021213397410F0A37420F092
:1002A0008518828519837410F0A37420F0750801F5
:1002B00075090078081212CF74021212E87A247BB2
:1002C00008120F49740212123775080478081212C6
:1002D000CF74021212E87A907B007904120EC57472
:1002E00002121237120677121339E0687003A3E086
:1002F000697004790280067904800279031200B6DD
:100300008E828F83741E80058E828F83E4F01206A6
:1003100077121339E0687003A3E0697004790180F3
:1003200002790074050201F774ED12104674F81298
:10033000126B900307E0FD900306E0FCFAEDF8E491
:10034000C8F9EA28FEE93408FF751001750B00753D
:100350000A068E088F0974027808121296C395084F
:10036000F8E49509F9740228F50E740339F50F8E37
:10037000088F09740978081212F0E508F511EE24C7
:1003800010F508E43FF509EEF50CEF5401F50D907A
:100390000383E014605914700302046414700302B0
:1003A00004DF14601024FE700302059A1470030227
:1003B000064A02065A750A03794E120C5B9003072F
:1003C00012066D7402F0A3744012066B74081206D4
:1003D0006BF0A3F07418C3940704F510AA10A90BCE
:1003E000120685A90A74081212377F0C0211637570
:1003F0000A04794E120C5BEE450D7005A911120F1F
:10040000AFC3EE9425EF9408503CC3E5089424E56F
:100410000994084031E50E2496F8E50F3420F98858
:10042000828983E0701BA3AA82AB83E070139003E0
:10043000887401F08882898374A5F08A828B838016
:1004400004900388E4F0750810750900780812120A
:10045000CF7C087D03EEFAEFFB120F4974021212F3
:10046000370203DC750A05E511C394794006750B64
:10047000010203DC75124075130078121212CF7C52
:10048000097D037402780C121296AA0CAB0DA91107
:10049000120EC57402121237900307E0A3F0900306
:1004A00006E0A3F0751043C3EE9425EF94084003D3
:1004B0000203DCC3E5089424E50994085003020311
:1004C000DC900388E070030203DCE50E2497F8E576
:1004D0000F3420F988828983E4F0A3F00203DC75ED
:1004E000080475090078081212CF74021212E87A13
:1004F000907B007904120EC5740212123774021236
:100500001339E0F8A3E0F9851882851983E0687053
:1005100003A3E069851882851983700BE0F47003EA
:10052000A3E0F470578009E0F47003A3E0F4700DC9
:100530008518828519837410F0A37420F012067751
:10054000121339E8F0A3E9F075080178081212CF08
:1005500074021212E87A247B08120F4974021212F4
:100560003775080478081212CF74021212E87A90D4
:100570007B007904120EC57402121237120677122C
:100580001339E0687003A3E0697006750A0102037D
:10059000DC750A02750B070203DC900391E060072B
:1005A000640260030203DCEDFF7A01790012068524
:1005B000E0600302063E8003120D1C120D26E97056
:1005C000F7740412133912065F7404121339780891
:1005D00012131D85080C85090D850A0E850B0F90D9
:1005E00005A2780C1212BC7404121339780C121381
:1005F0000EE5084509450A450B70CE8EC2E5C55487
:10060000E04FF5C5740412133912065F7404121317
:1006100039780812131D85080C85090D850A0E8589
:100620000B0F9005A2780C1212BC740412133978C7
:100630000C12130EE5084509450A450B70CE7A01E8
:10064000790012068579080203E5EC900393F070B7
:10065000030203DC750A090203DC79060203E5E400
:10066000F0A37426F0A3E4F0A3F022F0A3E4F0A337
:10067000F0A3F0A3F0A322851882851983E0F8A3E4
:10068000E0F974022274F8121046EAFE900305E0C5
:10069000D2E7F0E9A3F0EE900303F08E0874042A89
:1006A000FE7C028004E062080CECFA3395E0FB74F7
:1006B000022AF58274033BF583EEF8C3EA98EB94C3
:1006C00000A2D265D03340DDE508F074012A0C3376
:1006D00095E0FD7A027B03120E4C0200D674E912FB
:1006E00010467582007583FE1211FE8A168B1775EF
:1006F00014007515008A828B83E4F0900391E070FA
:1007000006D2AAD2AF80046402700579001200B646
:10071000750C00750D20750E00750F00900391E0AB
:10072000600464027015120D1C1200DBE9F87409F4
:1007300068600302080D79001200B675080075099B
:100740000278081212CF74021212E8850C08850D87
:1007500009AA08E5095407FB850E0A850F0B740BDF
:100760007808121252A908120EC574021212377EAE
:10077000007F009005AAC0828E10EFF5113395E03E
:10078000F512F513850C08850D09850E0A850F0BEA
:10079000780879101212A99005A678081212BC7573
:1007A0008305D08278081211DF501D8518828519C3
:1007B00083E5822EF582E5833FF583E0F9AA14AB49
:1007C0001512083C8A148B150EEE70010FC3EF94BE
:1007D0000240A09005AE780C1212BC9005B2780CC5
:1007E0001211DF400302071C7900AA14AB1512088E
:1007F0003C790012083C8B15900391E07004C2AF65
:10080000C2AAEA451570277AA57BA58021E8700366
:1008100002073B740668700302073B7407687003A5
:1008200002073B8516828517837401F080BA7582B2
:10083000007583021211FE7F10021163C008C00907
:100840007C088A088B09740F78081212F0E508F802
:10085000EA25E0FAEB33FBE9A2E7500474014AFA17
:10086000E8A2E0500874216AFA74106BFBE9C33304
:10087000F91CEC70CDD009D0082274F8121046781B
:10088000007900802274942EF582E43403F583E02D
:100890008A828B83F09004141209FA4005900414A4
:1008A000E4F008E8700109900414E0FEA3E06E6033
:1008B00007C3E89CE99D40CDE8FAE9FB7F010211FE
:1008C0006374F7121046900498E0F509A3E0F50868
:1008D000F8E509C398F895E0F9E508C39509E850EB
:1008E0000B120ADC701178007900801B247F500104
:1008F00009C39CE99D50EF7A007B008041E004F041
:10090000D2E908E8700109C3E89CE99D502C8A826D
:100910008B83E0C0E0900499E0FE74182EF582E429
:100920003404F583D0E0120ACC90049AE4F09004E9
:1009300099E0C3947F40C6E480C5E8FAE9FB7F02F2
:10094000021163C082C083C2E9900498E0F8A3E07A
:10095000686017741828F582E43404F583E0F5C163
:10096000900498120AF34002E4F0020D3A74F8126F
:1009700010467800790090051DE07055A3E0705195
:1009800075F900C28FC284A28340FCA28F4004A2EA
:100990008350F8AEF9C28FA2835004D2848032EE25
:1009A000C0E0E0FE1209EFD0E0F090051E120AF35D
:1009B00040D9E4F080D51209EFE08A828B83F09071
:1009C000051D1209FA400590051DE4F008E87001C4
:1009D0000990051DE0FEA3E06E6007C3E89CE99D59
:1009E00040D4E8497006E4F090051DF00208B874A0
:1009F0009D2EF582E43404F58322E004120AD0C36C
:100A000094802274F81210469005A0E0FEF890053C
:100A10009FE0FFEEC39FE0500DC398F895E0F912F8
:100A20000ADB70188012C398F895E0F9E8247F502B
:100A30000109C39CE99D4004EC4D70077A007B00DE
:100A4000020AC98A828B83E0F5F9A3AA82AB837874
:100A50000179008008E004F008E8700109C3E89C0F
:100A6000E99D50278A828B83E0C0E09005A0E0FEDC
:100A7000741F2EF582E43405F583D0E0120ACC9081
:100A800005A0E0C3947F40CDE480CCC28FA2834018
:100A9000FCC284A28F4004A28350F890059F120AE2
:100AA000E6E0F5F9C28F90059FE0FAA3E06A9005B1
:100AB0009F7005120AE68005120AF34002E4F0A2D4
:100AC0008350D0D284E8FAE9FB0208BC120AD02293
:100AD000F08A828B83A3AA82AB8322E824FF18E9E1
:100AE00034FFF9E84922E0FA741F2AF582E434055C
:100AF000F58322E004F0C394802274FB12126B7E13
:100B0000009005CA780812131D9005CA7401F0A35D
:100B1000F0A37469F0A374A5F09005B678081212DA
:100B20008170047E0180159005BA780812128160E8
:100B300008E59D541864107003022000120C81EE29
:100B4000A2E05003020BFEAA18AB191201FFE970D4
:100B500003020BFE851882851983E0C3943C500C78
:100B6000E0F8743CC398FA95E0FB80047A007B00BF
:100B7000120D3FE97003020BFE900391E0640170D7
:100B80000C75F800C2AB539AF7D2EA805E7907126F
:100B900000B68003120D1C120D26E970F7740112C5
:100BA0001339E4F0A37426F0A3E4F0A3F074011267
:100BB0001339780812131D85080C85090D850A0E56
:100BC000850B0F9005A2780C1212BC740112133918
:100BD000780C12130EE5084509450A450B70CE75D1
:100BE0008600C2AAC28B539AFBC2E990000174CD61
:100BF000F0022000C2AF75C9AB75C95B80FE7508F5
:100C000000750900750A00750B00900391E0701BD8
:100C1000D2AAD2AF79051200B6E07003120D1C12F1
:100C200000DBE9F8740968700980E9794E120C5B01
:100C300080ED74016870E2E07017120D1C9005BE23
:100C400078081212BC9005C278081211DF50EBC26E
:100C5000AAC2AF75C9AB75C95B80FEC082C083787C
:100C6000109005A1E0C399501575B60FE5B4A2E741
:100C700050FAE5BBC39940F118E870EDE9F0020DB8
:100C80003AC082C08353BEFBE59DA2E650FA0078CD
:100C9000F8790100120ADB70FA75C6807480659ECF
:100CA00070FA43BE049062707408F0794A120C5BCB
:100CB00090000174F5F07403F5D575D489A2A0E411
:100CC00033900391F0A2E05029D28453F3F753F309
:100CD000EF53FDF743FD10538FF753F7DF43FC202D
:100CE00043F10253F5DF75F82043F4F0D2FED2ABA6
:100CF000802853FF3F85FFFF53F1FE43F30C53F26F
:100D0000F375868075C48090049BE4F0A3F075C2EF
:100D1000D875C50B75C402438640801E8003120936
:100D200043A2E940F922C082C083900498E0F8A36E
:100D3000E0686004790180027900D083D082227457
:100D4000F112104674FF12126B7E00900391E06462
:100D500001706CC2849003927401F07508388E099A
:100D60008E0A8E0B7C017D00AA18AB19120E1C8B0B
:100D70000DEA450D6018851882851983E0641060BE
:100D80002DE064EF70088E088E098E0A8E0B8508A0
:100D90000C85090D850A0E850B0F9005A2780812A7
:100DA00012BCE50C450D450E450F70347E019003D5
:100DB00091E064017056D284900392E4F08051D2A5
:100DC000AAD2AF8A088B09E4F50AF50B9005C6781C
:100DD0000C12131D7808790C120FC679061200B692
:100DE000900391E06003020D64120D1C1200DBE918
:100DF000F8740968700779061200B6809174076864
:100E00006084E8608974066870A48082C2AFC2AA58
:100E1000EEF974011212377F08021163C082C08399
:100E2000900391E0700512087A801E900392E060B2
:100E300015A28F500BE5F98A828B83F07A0180022C
:100E40007A007B00800312096D020D3AC082C083D4
:100E5000900391E070051208C18003120A03020D8D
:100E60003AC0E074F21210AC900001E064CD70055D
:100E7000122013802AE064F57024E5C1C28BC0E023
:100E8000900415E0F8749428F582E43403F583D0D7
:100E9000E0F0900415120AF34005E4F08001007FB1
:100EA0000102110BC0E074F21210AC900001E0647A
:100EB000CD700512203B800BE064F57005120943EC
:100EC00080010080DA74F6121046890A740F550A00
:100ED000F508750900740B7808121296EA2400F8D8
:100EE000EB3480F9E82400E93509F985C709A2AF98
:100EF000E433F508C2AFE50AC4540FFAE5C754F865
:100F00004AF5C7740A121339E0FAA3E0FB801C8883
:100F1000828983E08C828D83F088828983A3A88272
:100F2000A9838C828D83A3AC82AD83EAFEEBFFEEB6
:100F300024FF1AEF34FFFBEE4F70D48509C7E50894
:100F4000A2E092AF7F0302116374F7121046ED9096
:100F50000389F0ECA3F0A37462F0A37473F0A3E030
:100F6000541FF07409121339E0F508A3E0F509E500
:100F700008333354FC90038EF0740678081212F094
:100F8000E50890038DF090038F7412F0A37442F083
:100F900075D1FE75D601EA906271F0EBA3F0906214
:100FA00070E0D2E1F0E0A2E740FB7F02021163C0F3
:100FB00082C083E9C333906272F0906270E0D2E045
:100FC000F0D083D08222080808EAC0E0EBC0E086B7
:100FD000F0E7A4FA180986F0E7A42AFA180986F0BF
:100FE000E7A42AFA180986F0E7A42AFA1986F0E796
:100FF000A4FBE5F02AFA190886F0E7A42BFBE5F03C
:101000003AFA190886F0E7A42BFBE5F03AFA18182B
:101010000986F0E7A4C5F02BFBE43AFA1908E7C506
:10102000F0C6A426F6E5F03BFBE43AFA1886F0E7B2
:10103000A4F6E5F00826F6E43B08F6E43A08F6D014
:10104000E0FBD0E0FA222518C582C0E0E51934FFA4
:10105000C583C0E0E518C3958224F910AF088583E5
:10106000198582188008858319858218D2AFCEF041
:10107000A3E520F0A37808E608F0A3DEFAEFF0A3DA
:10108000E58124FBF8E608F0A3E608F0A30808E6EB
:1010900008F0A3E608F0A315811581D0E0FED0E0AA
:1010A000F815811581E8C0E0EEC0E022C0D0251817
:1010B000C582C0E0E51934FFC583C0E0E518C395DB
:1010C0008224F310AF0885831985821880088583F0
:1010D00019858218D2AFC8F0A3E9F0A3EAF0A3EB18
:1010E000F0A37908E709F0A3D8FAECF0A3EDF0A398
:1010F000EEF0A3EFF0A3D0E0F0A3D0E0F0A3D0E0B7
:10110000F0A3E520F0A3E5F0F0A32285198385186C
:1011100082E0C0E0A3E0F9A3E0FAA3E0FBA3780833
:10112000E0F608A3DFFAE0FCA3E0FDA3E0FEA3E005
:10113000FFA3E0C0E0A3E0C0E0A3E0F5D0A3E0F5AA
:1011400020A3E0A3F5F010AF0885831985821880ED
:1011500008858319858218D2AFD082D083D0E0F879
:10116000D0E032851983851882E0A3FEE0A3F52044
:101170007808E0A3F608DFFAE0A3FFE0A3C0E0E010
:10118000A3C0E0E0A3C0E0E0A3C0E010AF08858208
:10119000188583198008858218858319D2AFD0837A
:1011A000D08222E490030278A179038002F0A3D8D0
:1011B000FCD9FA7AA27B0590008E782979018015F6
:1011C000E493A3AD82AE838A828B83F0A3AA82AB21
:1011D000838D828E83D8E9D9E7120AFA121343C0AD
:1011E00008C3E096F50808A3E096420808A3E09635
:1011F000420808A3E09645087001D3D00822C582B2
:101200002518C582C583351910AF07F519858218D1
:101210008007F519858218D2AFC583222518F5827B
:1012200010AF08F518400C15198008F51840021584
:1012300019D2AF8519832200C0D0251810AF08F548
:1012400018500C05198008F51850020519D2AFD0B6
:10125000D0226016080808C6C313C618C613C618DD
:10126000C613C618C613C6D5E0EA22251810AF0863
:10127000F518400C15198008F51840021519D2AF61
:1012800022E066701008A3E066700A08A3E06670AA
:101290000408A3E06622700422600D18C6C333C69A
:1012A00008C633C6D5E0F41822E627F60809E63763
:1012B000F60809E637F60809E637F622E026F608CA
:1012C000A3E036F608A3E036F608A3E036F622746B
:1012D000028000C0E0F40412121CD0E012132C2291
:1012E0002518FAE43519FB222518FCE43519FD22EE
:1012F000600C08C6C313C618C613C6D5E0F4227521
:10130000D00075813F7518027519030211A3E6F02C
:1013100008A3E6F008A3E6F008A3E6F022E0F6084A
:10132000A3E0F608A3E0F608A3E0F622CAC0E0E6D0
:10133000F0A308DAFAD0E0FA222518F582E435198C
:10134000F5832200000080FBFFFFFFFFFFFFFFFF90
:10135000FFFFFFFFFFFFFFFFFFFFFFFFFFFFFFFF9D
:10136000FFFFFFFFFFFFFFFFFFFFFFFFFFFFFFFF8D
:10137000FFFFFFFFFFFFFFFFFFFFFFFFFFFFFFFF7D
:10138000FFFFFFFFFFFFFFFFFFFFFFFFFFFFFFFF6D
:0A1FF600CA05094338860000000008
:020000040003F7
:01FFF000F020
:020000040000FA
:10200000022C010221F9FFFFFFFFFFFFFFFFFFFF8F
:10201000FFFFFFFFFFFFFFFFFFFFFFFFFFFFFFFFD0
:10202000FFFFFFFFFFFFFFFFFFFFFF0229F1FFFFA1
:10203000FFFFFFFFFFFFFFFFFFFFFFFFFFFFFFFFB0
:10204000FFFFFF022745FFFFFFFFFFFFFFFFFFFF2F
:10205000FFFFFF022139FFFFFFFFFFFFFFFFFFFF31
:10206000FFFFFFFFFFFFFFFFFFFFFF0228BAFFFF99
:10207000FFFFFFFFFFFFFFFFFFFFFFFFFFFFFFFF70
:10208000FFFFFF02218DFFFFFFFFFFFFFFFFFFFFAD
:102090001020102001965118000200002C30000082
:1020A0000000C62FAA30FC2F74300000F02F000073
:1020B0000000000000000000000000000000000020
:1020C00000000000000006FFFFFF01010400031AEA
:1020D000000000E8030000FFFF7E1A03E803000091
:1020E00064006400B801A0BB0D00A0BB0D0002029B
:1020F000000800000502070401051E020514020184
:102100003C0A0101080803B80B02803E0102FEFFF1
:10211000E8030A050001FFFF0A1401E001010503BD
:102120000101FF0F10FEFF414C00000000B34A0008
:10213000000000FF000000FF00C0E074F212250D57
:10214000A2AFE433F508D2AFAFA7AEA1EE5F541053
:102150006006122D5075A1EFEE5F54086008122D35
:102160005675A1F78023EEA2E092F0EFA2E082F094
:102170005017906198E0F8900725E0C398A2D265C7
:10218000D0335002E8F075A1FEE5088063C0E0742A
:10219000F212250DA2AFE433FED2AF9061A4E0F8B5
:1021A000759B00E59158540860087591F7122D9EB3
:1021B0008023E59158541060087591EF122DA4808A
:1021C00014E591A2E092F0E8A2E082F05007E0C2AC
:1021D000E0F0122EFA9061A3E0F8E5E958540460AB
:1021E0000E122ED075E9FB906193E0A2E640F2EE6C
:1021F000A2E092AF7F0102256CC0E074F212250DBF
:10220000A2AFE433FED2AF9061A5E0F8E5BF585429
:1022100004600675BFFB122F1280D4C3E498F8E463
:1022200099F912225C8026C3E49AFAE49BFBE92028
:10223000E7E912225CE498F8E499F922C3E498F8FB
:10224000E499F912225CE498F8E499F9C3E49AFA63
:10225000E49BFB22EB20E7CFE920E7E0B90010BBCD
:102260000008E88AF084F8AAF022E4FBC8FA22EB1E
:1022700070227B10C833C8C933C9335007C39AC30F
:10228000DBF280069A50012ADBEAC833F4C8C9336E
:10229000F4C9FA2275F008E4C833C8C933C933C990
:1022A0009AC99B5004C92AC93BD5F0ECFBC833F44A
:1022B000C8E4C9FA2274F51224A774FA122A8475A4
:1022C000080475090078081229A87404122A4E7AA5
:1022D000F87B0779031239E074021229D69080BB8B
:1022E0007808122C117402122C927808122AAF70FE
:1022F0004975080275090078081229A87402122A83
:102300004E7AF67B0779031239E074021229D685DA
:102310001882851983E0F47003A3E0F4601C85182B
:1023200082851983E0F8A3E0F9888289837402F03A
:10233000A3F0A37469F0A374A5F0C2AF75D69F0291
:10234000000074061229D67F04022788080808EACC
:10235000C0E0EBC0E086F0E7A4FA180986F0E7A435
:102360002AFA180986F0E7A42AFA180986F0E7A4E1
:102370002AFA1986F0E7A4FBE5F02AFA190886F094
:10238000E7A42BFBE5F03AFA190886F0E7A42BFB4B
:10239000E5F03AFA18180986F0E7A4C5F02BFBE43B
:1023A0003AFA1908E7C5F0C6A426F6E5F03BFBE4C7
:1023B0003AFA1886F0E7A4F6E5F00826F6E43B08BA
:1023C000F6E43A08F6D0E0FBD0E0FA22E4CFC0E031
:1023D000E4CEC0E0E4CDC0E0E4CCC0E075F020E69F
:1023E00026F608E633F608E633F608E633F618185C
:1023F00018EC33FCED33FDEE33FEEF33FFC3EC9707
:1024000009ED9709EE9709EF97191919400FFFEC9D
:1024100097FC09ED97FD09EE97FE191906D5F0BF57
:10242000ECF709EDF709EEF709EFF7191919D0E004
:10243000FCD0E0FDD0E0FED0E0FF222518C582C030
:10244000E0E51934FFC583C0E0E518C3958224F8A0
:1024500010AF0885831985821880088583198582C5
:1024600018D2AFCEF0A3E520F0A37808E608F0A3D9
:10247000DEFAEFF0A3E58124FAF8E608F0A3E60817
:10248000F0A3E608F0A30808E608F0A3E608F0A326
:1024900015811581D0E0FED0E0F8158115811581F8
:1024A000E8C0E0EEC0E0222518C582C0E0E519349E
:1024B000FFC583C0E0E518C3958224F910AF0885F5
:1024C00083198582188008858319858218D2AFCE3A
:1024D000F0A3E520F0A37808E608F0A3DEFAEFF019
:1024E000A3E58124FBF8E608F0A3E608F0A30808BA
:1024F000E608F0A3E608F0A315811581D0E0FED030
:10250000E0F815811581E8C0E0EEC0E022C0D025DA
:1025100018C582C0E0E51934FFC583C0E0E518C3E3
:10252000958224F310AF0885831985821880088569
:102530008319858218D2AFC8F0A3E9F0A3EAF0A30B
:10254000EBF0A37908E709F0A3D8FAECF0A3EDF0DB
:10255000A3EEF0A3EFF0A3D0E0F0A3D0E0F0A3D07F
:10256000E0F0A3E520F0A3E5F0F0A3228519838530
:102570001882E0C0E0A3E0F9A3E0FAA3E0FBA378AF
:1025800008E0F608A3DFFAE0FCA3E0FDA3E0FEA369
:10259000E0FFA3E0C0E0A3E0C0E0A3E0F5D0A3E04B
:1025A000F520A3E0A3F5F010AF0885831985821804
:1025B0008008858319858218D2AFD082D083D0E07D
:1025C000F8D0E032122C87B90003022603E490040D
:1025D000D1788A791A8002F0A3D8FCD9FA7A5A7B8A
:1025E0001E90209478A679018015E493A3AD82AE65
:1025F000838A828B83F0A3AA82AB838D828E83D859
:10260000E9D9E77582857583AD74061229827582D2
:10261000B07583487400122982E473FF75F0108E40
:102620001A8F1B85821F85831E851882851983E07A
:10263000CEA3E0CF851F82851E83EBC9EAC8EDCB10
:10264000ECCAC3E833C8E933C9EA33CAEB33CBC3B6
:10265000EA9EF51DEB9FF51CB35004AB1CAA1DECC4
:1026600033CCED33CDD5F0DAAE1AAF1B22D083D008
:1026700082ECC0E0EDC0E0E493A3FCE493A3FDEDA5
:102680004C600D1227C8EC24FFFCED34FFFD80EFF9
:10269000E493A3FCE493A3FDED4C600D122865ECDC
:1026A00024FFFCED34FFFD80EFD0E0FDD0E0FCE442
:1026B00093A3C0E0E493C0E022851983851882E0EB
:1026C000A3FEE0A3F5207808E0A3F608DFFAE0A374
:1026D000FFE0A3C0E0E0A3C0E0E0A3C0E0E0A3C04F
:1026E000E0E0A3C0E010AF08858218858319800858
:1026F000858218858319D2AFD083D082022988D0F1
:1027000083D082E9C0E0E493A3C386F0C5F095F0DE
:10271000F908E493A386F0C5F095F0700BE493A359
:10272000C3994005E9048002A3E475F002A4258260
:10273000F582E5F03583F583D0E0F9E493A3C0E0BA
:10274000E493C0E022C0E074F212250DA2AFE4339E
:10275000FED2AFC2C0901B29E0700BE5D1A2E450BD
:102760001D122CBA8018E5D1A2E3500675D1F712DC
:1027700047CCE5D1A2E4500675D1EF1247C0EEA2D6
:10278000E092AF7F0102256C851983851882E0A352
:10279000FEE0A3F5207808E0A3F608DFFAE0A3FF47
:1027A000E0A3C0E0E0A3C0E0E0A3C0E0E0A3C0E09D
:1027B00010AF088582188583198008858218858363
:1027C00019D2AFD083D08222C0E0C3E493960874BC
:1027D00001939618400FE49366700808740193669D
:1027E0001870007019A3A3C3E4939608740193961C
:1027F00018A3A3400DD0E0D0E0D0E00226A9A3A307
:10280000A3A3A3A3D0E0227404800474028000CCAC
:10281000C0E0EDC0E0E518C39CCCAD1950011D101F
:10282000AF068C188D1980068C188D19D2AF12291D
:1028300004D0E0FDD0E0FC2274028000CCC0E0EDCA
:10284000C0E0E518C39CCCAD1950011D10AF068C3B
:10285000188D1980068C188D19D2AF1228E2D0E09D
:10286000FDD0E0FC22C0E0C0F088F0E49366700880
:102870000874019366187000A8F0A3A3700BD0F041
:10288000D0E0D0E0D0E00226A9A3A3D0F0D0E0228F
:10289000D083D082CCC0E0E493A3600612296314F5
:1028A00070FAE493A36006122A6E1470FAD0E0FC6A
:1028B000E493A3C0E0E493C0E022C0E074F21225E8
:1028C0000D758900C2C5901B29E0700E7A007B103F
:1028D0009007BDE0F91231D68003123A3A7F010227
:1028E000256CCAC0E0E493A3C582CCC582C583CD64
:1028F000C583F0A3C582CCC582C583CDC583DAE587
:10290000D0E0CA22CAC0E0E0A3C582CCC582C5839C
:10291000CDC583F0A3C582CCC582C583CDC583DA7E
:10292000E6D0E0CA227009080808226016181818B4
:10293000C6C333C608C633C608C633C608C633C6C0
:10294000D5E0EA22C008C3E096F50808A3E0964265
:102950000808A3E096420808A3E09645087001D352
:10296000D00822C0E0E493A3D39C5010E493A3C307
:102970009C400AD0E0D0E0D0E00228ADA3A3A3D0D1
:10298000E022C09FF59FE473D09F22D083D082C005
:102990009FE493C0E0740193C0E0740293F59F221A
:1029A0007404800A74038006740280027401C0E01B
:1029B000F4041229BBD0E0122C3E222518F5821017
:1029C000AF08F518400C15198008F51840021519C4
:1029D000D2AF8519832200C0D0251810AF08F51892
:1029E000500C05198008F51850020519D2AFD0D047
:1029F00022C0E0C0D0E8C0E0A8A8D2AFC2C7E8A219
:102A0000E792AFD0E0F8D0D0D0E032BB0102E722AD
:102A1000C082C08389828A83BB0003E08002E49382
:102A2000D083D082226016080808C6C313C618C611
:102A300013C618C613C618C613C6D5E0EA22251851
:102A4000F8E43519F9222518FAE43519FB2225187E
:102A5000FCE43519FD22C3E0C696F608A3E0C6964D
:102A6000F608A3E0C696F608A3E0C696F622C0E0F4
:102A7000E493A36C7009D0E0D0E0D0E00228ADA3CD
:102A8000A3D0E022251810AF08F518400C151980C6
:102A900008F51840021519D2AF22E7667010080930
:102AA000E766700A0809E76670040809E76622E02D
:102AB00066701008A3E066700A08A3E06670040858
:102AC000A3E06622C3E09608A3E09608A3E0960878
:102AD000A3E096A2D265D03322C3E096F008A3E02B
:102AE00096F008A3E096F008A3E096F022C3E697DC
:102AF000F60809E697F60809E697F60809E697F654
:102B000022C3E4939608740193960874029396087E
:102B10007403939622E493F608740193F608740202
:102B200093F608740393F622E647F60809E647F69B
:102B30000809E647F60809E647F622E026F008A36A
:102B4000E036F008A3E036F008A3E036F022E627EE
:102B5000F60809E637F60809E637F60809E637F613
:102B600022E657F60809E657F60809E657F6080977
:102B7000E657F622E056F608A3E056F608A3E0561C
:102B8000F608A3E056F622E026F608A3E036F6089B
:102B9000A3E036F608A3E036F622E056F008A3E0FC
:102BA00056F008A3E056F008A3E056F02270042285
:102BB000600D18C6C333C608C633C6D5E0F4182264
:102BC000E4C396F608E496F608E496F608E496F66A
:102BD00022C6F4C608C6F4C608C6F4C608C6F4C6BB
:102BE00022C3E7960809E7960809E7960809E796D9
:102BF00022C3E09608A3E09608A3E09608A3E09617
:102C00002275D00075813F7518D175190400022511
:102C1000C4E0F608A3E0F608A3E0F608A3E0F62275
:102C2000600C08C6C313C618C613C6D5E0F422E666
:102C3000F008A3E6F008A3E6F008A3E6F022CAC075
:102C4000E0E6F0A308DAFAD0E0FA22ECF0A3EDF027
:102C5000A3EEF0A3EFF022E0FCA3E0FDA3E0FEA3CF
:102C6000E0FF22E0FAA3E0FBA3E0FCA3E0FD22E00A
:102C7000F8A3E0F9A3E0FAA3E0FB22E8F0A3E9F06F
:102C8000A3EAF0A3EBF022E5C754F84401F5C779B5
:102C900001222518F582E43519F5832212298BCCFF
:102CA000FA0312298B94FB0312298B09FC031229C6
:102CB0008B0DFD0312298BB5FE0312298B1AFF031E
:102CC00012298B65FF0312298B76FF0312298B854E
:102CD000FF0312298B9BFF0312298BAEFF031229DE
:102CE0008BB9FF0312298BCAFF0312298BBB790012
:102CF00012298BE7790012298B8F7C0012298BE631
:102D00007C0012298B227D0012298B367D0012292E
:102D10008B4F7D0012298B407E0012298B1C7F0077
:102D200012298B307F0012298B7DAF0612298BA1CF
:102D3000AF0612298BBAAF0612298BF8AF061229FB
:102D40008B28B00612298B55B00612298BBBB00612
:102D500012298BBEB00612298BC8B00612298BD55A
:102D6000B00612298B3CFD0212298B5CFD02122950
:102D70008B9BFD0212298BB9FD0212298BD4FD0217
:102D800012298B3AFE0212298B46FE0212298BA3CE
:102D9000FE0212298BC7FE0212298B88FF0212291C
:102DA0008B95FF0212298BA6FF0212298BDFB90631
:102DB00012298BF7B90612298B23BA0612298BF632
:102DC000890612298B4A8B0612298B588B061229E9
:102DD0008B6B8B0612298B808B0612298B958B06A9
:102DE00012298BA88B0612298B248C0612298B8919
:102DF0008C0612298B1F8D0612298BF88D0612293D
:102E00008B088E0612298B178E0612298B46B9065F
:102E100012298B6AB90612298B92B90612298BBA2C
:102E2000B90612298B8FA60612298BB6A60612297F
:102E30008BD5A60612298B39A70612298B0DA10660
:102E400012298B26A10612298B32A10612298B4644
:102E5000A10612298B64A10612298B6EA1061229E4
:102E60008B78A10612298B8BA10612298B1CA20636
:102E700012298B8BA20612298BBFA20612298B0D59
:102E8000A30612298B5AA30612298B75A3061229B1
:102E90008B7FA30612298BA5A30612298B0AA406F1
:102EA00012298B447F0012298B667F0012298BAD7B
:102EB000BA0612298B06D70512298B32D70512299B
:102EC0008B4FD70512298B62D70512298B7DD70529
:102ED00012298BD7D70512298B05D80512298B0FFC
:102EE000DC0512298B60DD0512298B92DD05122984
:102EF0008BF4DD0512298B7DDF0512298BA5DF05FB
:102F000012298BBADF0512298BCADF0512298B0A19
:102F1000E00512298B4CE00512298B5CE005122993
:102F20008B3AB20612298B54B20612298B7CB20658
:102F300012298B95B20612298BB9B20612298BD7AA
:102F4000B20612298BEEB20612298B1CB306122987
:102F50008B37B30612298B26BA0612298B069A06DE
:102F600012298B169A0612298B1B9B0612298B4D50
:102F70009B0612298B739B0612298B969B0612299E
:102F80008BAD9B0612298BE79B0612298B509C0662
:102F900012298B929C0612298BD99C0612298B062A
:102FA0009D0612298B3D9D0612298B4D8E061229F6
:102FB0008BAF8E0612298B568F0612298B8D8F06AA
:102FC00012298B28940512298BD7940512298B0975
:102FD000970512298BE0990512298B729B051229FE
:102FE0008BD49B0512298B549F0512298B9CA0051D
:102FF00012298B6AB30612298BB5B30612298B4CA2
:10300000F60512298B0BF90512298BA8F90512294F
:103010008BD4F90512298B02FA0512298B37FA0590
:1030200012298B5FFA0512298BBFFA0512298BB082
:10303000BC0512298B39C10512298B30C305122911
:103040008B5EC40512298B3EC50512298BECC60583
:1030500012298B9AC80512298B66C90512298BBAC9
:10306000C90512298B07A90612298B12A906122954
:103070008B33A90612298BDFA10512298BFEA60529
:1030800012298B63A80512298B3FAA0512298B3CB4
:10309000AB0512298B6CAC0512298B84AD05122966
:1030A0008B9FAE0512298B25BA0412298B5DBA04B9
:1030B00012298B0BC50412298B08C60412298B5ABE
:1030C000C70412298BB7C80412298B90C90412298E
:1030D0008B5ECA0412298B45CB0412298B34CC0495
:1030E00012298BDCCC0412298B0CCD0412298BBE47
:1030F000CE0412298B34CF0412298B4DCF04122910
:103100008BAED00412298B6CD10412298B0BD20404
:1031100012298BB4D20412298B22D30412298BC01A
:10312000D30412298B43D40412298B61D4041229AD
:103130008B78D50412298B46D60412298BF7D60436
:1031400012298B56FE0412298B80FE0412298B93C0
:10315000FF0412298B96FF0412298B9DB8061229B1
:103160008BE3B80612298B25B90612298B35B906CF
:1031700012298BBEEF0512298BFCEF0512298B65F6
:10318000F00512298B84F00512298B9DF005122978
:103190008B4FF10512298B58F10512298BA9F105E6
:1031A00012298BDFF10512298BF6F10512298B62AA
:1031B000F20512298BF2F20512298B28F305122948
:1031C0008B6CF30512298BCDF30512298BFFF305C8
:1031D00012298B72F40512298BC6F40512298B0370
:1031E000F50512298B3AF50512298B4CF5051229A4
:1031F0008B5EF50512298B96F50512298BE2F505F4
:1032000012298B20F60512298B00800612298B408B
:10321000810612298B63810612298B74810612297B
:103220008B8C830612298BAC830612298B48AB0644
:1032300012298B7EAB0612298BC6AB0612298B2274
:10324000AD0612298B00800512298B3E81051229BB
:103250008B7A810512298B49830512298B7383058B
:1032600012298B0A860512298B4A860512298BDFC3
:10327000870512298B74880512298BD2880512299B
:103280008B65890512298B9F890512298BE1890598
:1032900012298B548B0512298BD88C0512298BFD92
:1032A0008E0512298B2B8F0512298B578F0512291A
:1032B0008B608F0512298BB68F0512298B469005DE
:1032C00012298B49930512298BCB930512298B8DDB
:1032D000BA0612298BA3BA0612298B4E920612291E
:1032E0008B64920612298B09930612298B48930648
:1032F00012298B65930612298B96930612298BE36C
:10330000930612298B17940612298B5294061229C0
:103310008B3E960612298B9FB50612298BF4B506B3
:1033200012298B3FB60612298B8CB40612298BFE0C
:10333000B40612298B3CB50612298B7DB5061229DD
:103340008B8CE00512298B92E00512298BD9E005C0
:1033500012298BE5E20512298B15E30512298B81D1
:10336000E30512298B3EE40512298B7FE40512291F
:103370008BB1E40512298B3BE50512298B52E5053B
:1033800012298B5FE50512298B69E50512298B0946
:10339000E70512298BFBE70512298B59E80512294D
:1033A0008B77F70112298B8DF70112298B3FF801DA
:1033B00012298B69F90112298B5EFA0112298BFB04
:1033C000FA0112298B36FB0112298BA8FB01122965
:1033D0008B06FC0112298B16FC0112298B3DFC0186
:1033E00012298B8FFC0112298BF8FD0112298BFD0C
:1033F000FD0112298B1FFE0112298BFFDA0212290F
:103400008B57DB0212298BF7DB0212298B74DD024A
:1034100012298B60DE0212298B1DDF0212298B34E8
:10342000DF0212298B83DF0212298BF7DF021229B8
:103430008B4DE00212298B60E00212298BC4E0025E
:1034400012298B33E10212298BDEE30212298BEC65
:10345000E40212298B47E50212298B9BE50212290F
:103460008B45E80212298B95E80212298B16E90296
:1034700012298B58E90212298B32EA0212298B6B2E
:10348000EA0212298B8AEA0212298BD5EA02122952
:103490008BEBEA0212298BA6EB0212298B8DEC0230
:1034A00012298B98EC0212298BE6EC0212298B3B35
:1034B000ED0212298B87ED0212298BEBEE02122905
:1034C0008B15EF0212298B9AF10212298BC4F1029B
:1034D00012298BC7F20212298BF4F20212298B6C8B
:1034E000F30212298B47F40212298B89F402122964
:1034F0008BFDF40212298B17F60212298B64F60257
:1035000012298B77F60212298B7AF60212298B8305
:10351000F60212298B9EF60212298B16F702122947
:103520008B4FF70212298B6BF70212298B97F70248
:1035300012298BBEF70212298BE2F70212298B5B4C
:10354000F80212298BCEF80212298B11F9021229E6
:103550008B14F90212298B43F90212298B59F902B3
:1035600012298B75F90212298BA4F90212298BC436
:10357000F90212298B0DFA0212298B48FA0212293C
:103580008B54FB0212298BB7FC0212298BD6FC024A
:1035900012298BEDFC0212298BFFFC0212298BB23F
:1035A000B70612298BC3B70612298B4CB80612290D
:1035B0008BF47F0012298B92E80512298BE1E80534
:1035C00012298B9FEA0512298B72EC0512298BB008
:1035D000EC0512298B86ED0512298B8FEE05122939
:1035E0008BB1EE0512298B0DEF0512298B8EEF059D
:1035F00012298B944E0012298BB64E0012298B2073
:10360000500012298B69500012298BDB50001229BF
:103610008B59510012298BBE510012298B05520083
:1036200012298B74520012298B1A530012298B8F86
:10363000530012298BD4530012298BE8570012290A
:103640008B015A0012298B3F5A0012298B7E5A0097
:1036500012298B985D0012298B1F5E0012298BBFE7
:103660005F0012298BF6600012298B066200122976
:103670008B77620012298B54630012298BD8630068
:1036800012298BEC630012298BB4640012298BDEA3
:10369000650012298B0B680012298B1E6A00122903
:1036A0008BFA6A0012298B8B6D0012298B606E00D9
:1036B00012298B7E6F0012298BD1720012298BE1A7
:1036C000720012298B61740012298BFE740012297A
:1036D0008B1D760012298BAF760012298B0678009D
:1036E00012298B4D780012298BFC780012298BAAA5
:1036F000D70412298B4AD80412298BB6D804122970
:103700008BD1D80412298B74D90412298BBCD9040B
:1037100012298BE8DA0412298B27DB0412298B9EED
:10372000DB0412298BEFDB0412298B56DC041229EF
:103730008B02DD0412298BE5DF0412298BFEE004E5
:1037400012298B81E10412298B44E30412298BE9AD
:10375000E30412298B93E40412298BF8E404122960
:103760008B67E50412298B86E60412298B7FE70418
:1037700012298BC9E70412298BE0E70412298B9FD9
:10378000E80412298BDEE80412298B59E904122976
:103790008BDDEA0412298B75EC0412298BE3ED040E
:1037A00012298B45EF0412298B57F00412298BEA5A
:1037B000F00412298B58F10412298B6AF2041229A1
:1037C0008BACDA0312298B15DB0312298B5DDB032B
:1037D00012298BA1DB0312298B14DC0312298B6EB7
:1037E000DC0312298BA9DC0312298B43DD03122988
:1037F0008B9DDD0312298B09DF0312298B82DF03E6
:1038000012298BACDF0312298BC0E00312298BD461
:10381000E10312298BFCE10312298BFAE20312293E
:103820008B0BE30312298B23E30312298B29E40377
:1038300012298B4CE40312298B1BE50312298B45BB
:10384000E50312298B5CE50312298B82E50312291B
:103850008BC1E50312298BE1E50312298B08E603EE
:1038600012298B20E60312298B03E70312298B5DB3
:10387000E70312298BC4E80312298B42E9031229BA
:103880008B66E90312298B7DE90312298B51EA0328
:1038900012298BEAEA0312298B10EB0312298B60A1
:1038A000EC0312298B7FEC0312298BFEEC03122907
:1038B0008B35ED0312298B73ED0312298B09EE036F
:1038C00012298B7EEE0312298B62EF0312298B40A3
:1038D000F10312298B15F20312298B61F2031229CD
:1038E0008B6CF30312298B8AF40312298BA8F5033E
:1038F00012298BB6F50312298BB2F60312298B54C9
:10390000F70312298B9AF70312298BAFF7031229B9
:103910008BC1F80312298B62F90312298BBEF903BC
:1039200012298B959D0612298BD59E0612298B9DF7
:103930009F0612298B05A00612298B79A006122951
:103940008B73FB0512298B91FB0512298BD5FB0587
:1039500012298BFBFB0512298B22FC0512298B3ABD
:10396000FC0512298B52FC0512298B6AFC051229D1
:103970008B14FD0512298B56FD0512298B6BFD0555
:1039800012298B72FE0512298B8DFE0512298B964A
:10399000FE0512298B9FFE0512298BA8FE05122910
:1039A0008BB2FE0512298BD3FE0512298B50FF0521
:1039B00012298B00850612298B2C890612298B4827
:1039C000890612298B4D890612298B03AE0612290E
:1039D0008B4B960612298B61960612298BEC970663
:1039E00012298BADB60612298BA3980612298BA635
:1039F000990612298BD5990612298BE79906122967
:103A00008BDFB00612298B15A40612298B71A40630
:103A100012298BB1A40612298B1AA50612298B3EF6
:103A2000A50612298B53A50612298B6AA506122911
:103A30008B8AA50612298B9AA50612298BB0A5069A
:103A400012298B5FFA0312298B6CA60612298BD4DC
:103A5000FF0212298B00800212298B578002122943
:103A60008BC3800212298B4F810212298B0582029F
:103A700012298B4D820212298B66820212298B89B0
:103A8000820212298BAB820212298BE9820212294F
:103A90008B38830212298B63830212298BC1830224
:103AA00012298B68840212298B10850212298B8CB3
:103AB000850212298B59860212298BA086021229AF
:103AC0008BEC860212298B74870212298BAD870238
:103AD00012298B03880212298B1F880212298B4E10
:103AE000880212298B5A8A0212298B888B0212298A
:103AF0008BB48B0212298BE88B0212298B098C0262
:103B000012298B188C0212298B238C0212298BD23A
:103B10008C0212298B428D0212298BCD8D02122923
:103B20008BD58D0212298B428E0212298B7E8E023A
:103B300012298B448F0212298B17900212298B6C49
:103B4000900212298B0B910212298B659102122986
:103B50008BAA910212298B43940212298B8695021B
:103B600012298B70980212298B54990212298B38D2
:103B70009A0212298B5D9A0212298B6E9A021229DF
:103B80008BE09A0212298B779B0212298BEB9B0206
:103B900012298BDB9C0212298B009D0212298B18A3
:103BA0009E0212298B369E0212298B529E021229E6
:103BB0008BC59E0212298BD49E0212298B5C9F0218
:103BC00012298B59A00212298B66A00212298B6F31
:103BD000A00212298B51A20212298B7DA302122965
:103BE0008B8DA30212298BC8A40212298B47A50230
:103BF00012298B78A60212298BB4A60212298B8E69
:103C0000A80212298B4BAC0212298B5FAC0212293D
:103C10008B69AC0212298B73AC0212298B7DAC022A
:103C200012298B87AC0212298BA0AC0212298BAA15
:103C3000AC0212298B21AD0212298B2CAD02122964
:103C40008B5BAD0212298B83AD0212298B8EAD02E4
:103C500012298BF3AD0212298BFDAD0212298B08BC
:103C6000AE0212298B2CAE0212298B50AE02122901
:103C70008BC2AE0212298B0BAF0212298B27AF0227
:103C800012298B98AF0212298BE4AF0212298B2DD7
:103C9000B00212298B6BB00212298BECB0021229F0
:103CA0008B93B10212298B58B30212298BBDB30238
:103CB00012298BEBB40212298B11B50212298B59F0
:103CC000B60212298B93B90212298B91BB021229D9
:103CD0008B5CBD0212298BF5BD0212298BF6BF0247
:103CE00012298BABC00212298BE4C00212298B541B
:103CF000C10212298B5EC10212298B87C3021229CD
:103D00008B8AC40212298BC7C50212298B1EC602D8
:103D100012298BC9C60212298B79C80212298BC6B7
:103D2000C90212298BE6C90212298B3BCA02122949
:103D30008B3CCB0212298B64CB0212298BC3CB02A2
:103D400012298BBBCC0212298B32CD0212298B4552
:103D5000CE0212298BB3CE0212298BB2CF021229C6
:103D60008B0CD20212298B35D20212298B9BD302E3
:103D700012298B1DD50212298B74D50212298B2290
:103D8000D60212298BC7D60212298B2AD7021229F2
:103D90008BE8D70212298B7AD80212298BD9D80244
:103DA00012298B1BD90212298B4CD90212298BA301
:103DB000DA0212298B00800312298B328003122928
:103DC0008B6B800312298B34820312298B78820338
:103DD00012298B4E830312298BAD830312298BC3C7
:103DE000840312298B0F850312298B9D87031229C7
:103DF0008B818A0312298BC88B0312298B608C0359
:103E000012298B6C8C0312298BB58C0312298BF72A
:103E10008D0312298BED8E0312298B178F03122924
:103E20008B6D8F0312298BC68F0312298B39900358
:103E300012298B6F920312298BF1930312298BDCC9
:103E4000940312298B26960312298B5E980312295C
:103E50008B5B9B0312298B6A9B0312298BFE9B03AE
:103E600012298BA99C0312298BEC9C0312298B35F8
:103E70009D0312298B859D0312298BE99D0312292D
:103E80008B5B9E0312298B779E0312298BA69E03C0
:103E900012298BE59E0312298BE09F0312298B8F39
:103EA000A00312298B0CA30312298B3EA403122911
:103EB0008B16A50312298B98A50312298BCDA90374
:103EC00012298BFCA90312298B57AA0312298B8A6A
:103ED000AA0312298B02AB0312298B35AB031229DB
:103EE0008B96AB0312298BE6AB0312298BB3AC0381
:103EF00012298B6CAD0312298B30AE0312298BAAC9
:103F0000B00312298B0CB20312298B5DB303122963
:103F10008B81B40312298B84B40312298BB3B403AD
:103F200012298BABB60312298B6AB70312298B991E
:103F3000B70312298BB7B80312298B7FB903122953
:103F40008B40BB0312298BB0BB0312298BE2BB034E
:103F500012298B02BC0312298B71BC0312298B6AB4
:103F6000BD0312298B8EBD0312298B01BE031229BA
:103F70008B2AC00312298B89C00312298BDDC00351
:103F800012298B0CC30312298BEFC30312298B77E1
:103F9000C40312298B5BC50312298BE5C5031229C3
:103FA0008BF9C50312298B0DC60312298B21C60379
:103FB00012298B35C60312298B62C60312298B92F4
:103FC000C60312298B4DC80312298B23C90312295A
:103FD0008BC7C90312298B1CCA0312298B7FCA0302
:103FE00012298BC8CA0312298BEFCA0312298BB777
:103FF000CB0312298B5DCC0312298BE3CD0312294D
:104000008B6ECE0312298BB5CE0312298B27CF03DB
:1040100012298B7CD00312298B25D10312298B59AD
:10402000D10312298B71D10312298B14D2031229C7
:104030008B90D40312298B38D60312298B56D603C2
:1040400012298B74D60312298B40D70312298B8E29
:10405000DA0312298B34810112298B76810112290E
:104060008BE3860112298B2F870112298B7587011B
:1040700012298BC6880112298B2B890112298B6F7B
:10408000890112298BD58A0112298B308E011229C0
:104090008B638F0112298BF29A0112298B829B016B
:1040A00012298B6C9E0112298BD19F0112298B340E
:1040B000A00112298B50A10112298BBAA201122949
:1040C0008B99A30112298B07A60112298B99A701AD
:1040D00012298B2AA80112298B49A90112298BD6F2
:1040E000A90112298BE0A90112298B08AA01122922
:1040F0008BABAA0112298B96AB0112298B5EAC0106
:1041000012298BEBAC0112298B01AD0112298B1EF8
:10411000AD0112298B47AD0112298B74AD01122913
:104120008BB8AF0112298B8BB00112298BCFB00154
:1041300012298B51B10112298BF2B10112298B2462
:10414000B20112298B6BB20112298B9EB201122986
:104150008BE2B20112298B31B30112298B36B301E4
:1041600012298B92B30112298BD6B30112298BC06D
:10417000B40112298B25B50112298B83B5011229AF
:104180008B02B60112298B7AB90112298B7DBA01F3
:1041900012298B13BC0112298B56BF0112298BF8EF
:1041A000BF0112298B41C20112298BFCC2011229C5
:1041B0008B3BC30112298BFFC40112298B1CC50143
:1041C00012298B25C50112298B2EC50112298B3985
:1041D000C50112298B58C50112298B7CC7011229F0
:1041E0008BD9C70112298BE3C70112298BEDC701B7
:1041F00012298B50C80112298BACC80112298BB926
:10420000C90112298B1ACA0112298B2BCB01122941
:104210008B74CB0112298B3ECC0112298B55CD0119
:1042200012298B19CE0112298B65CF0112298B69B6
:10423000D00112298B62D10112298B7AD101122966
:104240008BB1D10112298BBBD10112298BC5D101B0
:1042500012298BD0D10112298BEED10112298B3674
:10426000D20112298B94D20112298BBBD2011229BF
:104270008BCDD20112298B76D30112298BAFD301BA
:1042800012298BE0D40112298B3DD50112298B2EE6
:10429000D60112298B64D60112298BD4D60112299A
:1042A0008B50D70112298BD1D80112298BF8D90153
:1042B00012298BBADA0112298B88DB0112298B0DA6
:1042C000DC0112298BBCDC0112298BA4DD0112292F
:1042D0008B3DDE0112298B19DF0112298B81DF0151
:1042E00012298B40E00112298B9CE00112298B00DE
:1042F000E10112298BC6E10112298BE9E1011229A2
:104300008BA3E20112298BC5E20112298B26E3015E
:1043100012298B56E50112298B4FE60112298BFBDE
:10432000E60112298B18E90112298B61E901122992
:104330008BACE90112298B08EA0112298B66EA018C
:1043400012298B8AEA0112298BAEEA0112298BE32A
:10435000EA0112298B0BEB0112298B50EB01122978
:104360008BAEEB0112298B07EC0112298B01ED01B9
:1043700012298BADEE0112298BF2EE0112298B1B53
:10438000EF0112298BA4EF0112298B17F0011229DA
:104390008B25F00112298B49F00112298B9FF00126
:1043A00012298BBAF00112298B75F10112298BA108
:1043B000F10112298BE4F10112298B47F201122934
:1043C0008B57F40112298B83F40112298B3EF501DE
:1043D00012298B22F60112298BB6F60112298BD6EF
:1043E000F30412298B0EF40412298B2FF4041229E2
:1043F0008B71F40412298BD5F40412298BDFF40499
:1044000012298BEFF40412298B26F50412298BCF85
:10441000F80412298B97FA0412298B7BFC041229C9
:104420008B1DFD0412298BA7FD0412298B508004DB
:1044300012298BF9800412298BD8810412298BE46C
:10444000820412298B04830412298B2684041229E6
:104450008BD6850412298B43860412298B1487047A
:1044600012298B1A880412298B92880412298BCD69
:10447000880412298B26890412298B618904122948
:104480008BAA890412298B3E8A0412298BD48A04B0
:1044900012298BA98B0412298B7C8C0412298B0A7C
:1044A0008D0412298B308D0412298B5D8D04122905
:1044B0008B8E8D0412298B5B8E0412298B6B8E04DC
:1044C00012298BBE8E0412298BCB8E0412298BD815
:1044D0008E0412298BE18E0412298B458F04122938
:1044E0008BA38F0412298BEE8F0412298B09900461
:1044F00012298B30900412298B4D900412298B596C
:10450000900412298BEA910412298B039204122938
:104510008B7F920412298B92920412298BA292040F
:1045200012298B46930412298BB2940412298BC54D
:10453000950412298B65960412298B6F9604122913
:104540008BEE960412298BFF960412298B3E97045A
:1045500012298B6C970412298B39980412298B909D
:10456000980412298BC9980412298B1F99041229C7
:104570008B3D990412298B8B990412298B569A042E
:1045800012298BA49A0412298BF19A0412298B7494
:104590009B0412298B9E9B0412298BD49B04122905
:1045A0008BE39B0412298B429C0412298BBA9C0436
:1045B00012298BFB9C0412298B4B9D0412298B76AC
:1045C0009D0412298B909D0412298BAA9D04122907
:1045D0008B7F9E0412298B899E0412298BC49E0412
:1045E00012298BD49E0412298BDD9E0412298B2E56
:1045F0009F0412298B429F0412298B64A004122964
:104600008B77A00412298B8CA00412298B1FA10484
:1046100012298B93A10412298B38A20412298B43EF
:10462000A20412298BA6A30412298BC2A304122967
:104630008B0EA40412298B7CA40412298BAEA40433
:1046400012298BC8A40412298B28A50412298BC710
:10465000A50412298B12A60412298B65A80412291D
:104660008BFDA80412298B74A90412298BD1AB04E9
:1046700012298BE9AB0412298BECAB0412298BF8BD
:10468000AB0412298B0CAC0412298B14AC04122934
:104690008B4BAC0412298B3FAD0412298BC9AD049E
:1046A00012298B4BAE0412298BCBAE0412298BA29C
:1046B000AF0412298BC4AF0412298B5DB0041229F8
:1046C0008BBAB00412298BBDB00412298B2CB10413
:1046D00012298B78B20412298B8BB30412298B1602
:1046E000B40412298B29B50412298BF0B5041229C0
:1046F0008B21B60412298B47B60412298B50B604BD
:1047000012298B7FB60412298B2FB70412298BDF55
:10471000B70412298B52B80412298BF5B804122958
:104720008B68B90412298BA7B90412298BF0B9043C
:1047300012298BEEFF0512298BAAFF0512298B98EF
:10474000FF0512298B88FF0512298BC7BA0612298B
:104750008BFA7F0012298B73BA0612298B6CBA066A
:1047600012298BC3BB0512298B12BB0512298B2E74
:10477000BA0512298B81B80512298B40B805122978
:104780008B17B80512298BC4B70512298B1DB705E5
:1047900012298B85B60512298B63B60512298B0B5E
:1047A000B60512298BD1B50512298B4FB5051229F3
:1047B0008BEEB40512298BA9B40512298BC4B3055D
:1047C00012298BE3FF0412298BE8B20512298BD53D
:1047D000FF0412298BCCFF0412298BC3FF0412297A
:1047E0008BDDFF0312298BFCFF0412298BECFF04E5
:1047F00012298BF77F0012298B90B20512298B00AA
:10480000B20512298BBBB10512298B99B706122963
:104810008B9FB10512298B44B00512298B06B00578
:1048200012298BE0AF0512298BDCA50612298B64B7
:10483000AF0512298B31B70612298BCFD605122965
:104840008B84D60512298B27D60512298BFAD5051C
:1048500012298BC9D50512298B99D50512298B717F
:10486000D50512298B11D50512298BF3D4051229F0
:104870008BB8D40512298B38D40512298B5BD0054F
:1048800012298B39CE0512298BE0CB0512298B5AC0
:10489000CB0512298B08CB0512298BDFC9051229FC
:1048A0008B93CA0512298B4CCA0512298B3798069F
:1048B00000000080FB8F0001001D1B870001001C11
:1048C0001B35000400A21E25000200A61E260002C1
:1048D00000A81E27000200AA1E28000100B41E29FD
:1048E000000100B51E84000400B61E86000100BA57
:1048F0001E2A000100BB1E2B000100BC1E2C000163
:1049000000C01E2D000800001B2E000100C11E2F3C
:10491000000100C21E30000100C31E31000100C4AE
:104920001E32000100C51E33000100C61E34000106
:1049300000C71E36000100C81E38000100081B39E0
:10494000000100BF1E83000200DC1E63000100198D
:104950001B64000100BD1E65000100BE1E6D00014C
:10496000001A1B71000800F81A66000100DB1E43E4
:10497000000100CC1E44000200CD1E45000100CF06
:104980001E46000200D01E47000800111B4800010F
:1049900000D21E4B000100D31E04000100DE1EA148
:1049A000000100E11E37000100E01E88000100DF69
:1049B0001E3C000100091B3D000100C91E49000208
:1049C00000D41E670001001B1B4D000200D61E4EC6
:1049D000000100D81E4F000200D91E3E0001001049
:1049E0001B510001000A1B52000100CA1E530001A6
:1049F00000CB1E540001000B1B0000000000000053
:104A00000136360101000102010001030100010429
:104A100001060605020000070100340801000F0925
:104A20000401010D0100FF0E08000017020000192B
:104A30000100FF1A0100011B0100FE1C0100081DFE
:104A40000200001F010001200100012102000023DB
:104A500001000F24020000260100012701000828A0
:104A60000200FF2A0100072B0102402C0100002D4B
:104A70000100012E0100012F0100FF30010B1D314B
:104A80000800003A0100083B01000F3C0100013D15
:104A90000100FF3E04000042040000460400004AFA
:104AA0000400004E04000052040000560400005AA6
:104AB0000400000103710301030103010301030169
:104AC0000322030203010310030003000300030099
:104AD0000300030003000342030003240306030052
:104AE0000300030403120325032303250323030404
:104AF0000304030003000300034403000300032333
:104B0000030003650321003503810300030503004F
:104B100003000300030003250323030101710101C6
:104B200001010111010101310101010101800110A7
:104B30000161013B001400630173017201620143D2
:104B4000010001130106013D0135000401120100BD
:104B50000100010001000104010401330133013CA3
:104B600001440132013600000100016501000135F8
:104B7000008101000105018201830100010302712E
:104B80000230016002110270020102020202028080
:104B900002100261023A0041006302730272026273
:104BA0000243020002130238000002000204021253
:104BB0000200020002000200020402040237003771
:104BC000003C0244020002390000020002650200BB
:104BD0000235028102000205028202830200020302
:104BE000047104020460041104700402040204014C
:104BF00004020410046104000414046304730472C6
:104C000004620443040004130406040004000404C2
:104C100004120400040004000400045104640000B1
:104C200004000400044404000400040004000465BB
:104C300004000435048104640005040004830400B6
:104C40000403007100300160001100700031022087
:104C50000350048000100061000000140063007322
:104C60000072006200430000001300060000000014
:104C70000004001200000000000000000004000416
:104C800000370037003C0244000000000000000034
:104C90000065000000350081000000050000008371
:104CA00000000036000100060000000F00000000B8
:104CB00000000000000000000003FFFF00000403EC
:104CC000FFFF0000FFFF0FF4010005C404032000F4
:104CD0000100000B000000000000000003010F00B5
:104CE00000000000000000000000000000000000C4
:104CF00000000000000000000000000000000000B4
:104D00000000002E3713008C361F0092361F80984B
:104D10003601002E370200143603001A3604002034
:104D20003605002636060032363000503631004A4D
:104D30003632005C36330062363500683634006E39
:104D4000363600743611008036140086361500445D
:104D500036FFFF00000A000000020000000400000F
:104D600000080000001000000020000000400000CB
:104D700000800000000001000000020000000400AC
:104D800000000800000010000000200000004000AB
:104D900000019A4006D04008CA400BE84010643D2C
:104DA0000AFA4002A04005BE4007A6400C82400D12
:104DB0008E40643C3BFF000007ECFDFDFDECDCDCBD
:104DC000CCBCACAC9C9C8C7C7C6C6C5C5C5C4C4CC3
:104DD0003C3C2C2C1C1C00160F00000B150B020079
:104DE00002220F3300000E01030507090B0D0F000F
:104DF000020406080A0C0D5A6967426565416C6C2D
:104E000069616E63653039150AF4D4C0A595827264
:104E1000636155504900011916181616182303002E
:104E2000303016181920231A1C1E3030301718196C
:104E300021301B1D1F3000393D3F373C3C362C4490
:104E40002D00034A49434E181A2505020C0E020B89
:104E5000040B0A0708000F02040201010101090204
:104E6000E803000000BE040AB84D00000000074E31
:104E70000E00FA067F00E8031E1E08052804010044
:104E80001001280C080903010C030508060300FFA4
:104E90000A0C0400C082C083901A76E4F0A3F07C70
:104EA0004C7D1C7AE37B19123338123B6C123DB2F5
:104EB000123B720263E574F512243B74F5122A84E6
:104EC000E9FF8A08EBFE8C09EF705D7402650870DB
:104ED0003E7908123584750A00780A1229ACE50972
:104EE000F50A780A1229ACEEF50A780A1229AC9074
:104EF00019FF122807901EBAE0F97C117D1B901E45
:104F0000DC126E15123B9674071229D6024FE87414
:104F10000165086003024FED79081235847B00EECD
:104F2000FAF9123BD8024FE874016F600874026FFF
:104F30006003024FEDEA600674036508704779026A
:104F4000123584901EBAE0F99019FF122C63123BBF
:104F500084E9F8901A0EE0A2E34010E8700D901A70
:104F60007AE004F06404700312500E740365087054
:104F700079901A7BE0F9740129F0E9C39405406A3D
:104F800012500E806574016508706274016F790AB1
:104F9000702E1235847401122C92E4F07402122CDB
:104FA000927403F004122C92E4F0A3F0A3F0A3F0A7
:104FB0007408122C92E4F0AA18AB191240AC804489
:104FC000123584901EB01228077A007B20901A03B5
:104FD000E0F91232F074041229D6901EBAE0F9906A
:104FE00019FF122C63123BBAE9F8E860179080E3CE
:104FF0001228077A017B00901A03E0F91232F0744C
:10500000041229D6740B1229D67F030226B99019EF
:10501000FFE4F0A374F8F0A374FFF0A37407F02288
:1050200074F612243BE9FFEAFE7AD1F91231B28A12
:10503000828B83E5824583702A7A027B0012319449
:10504000EA4B700E7A107B00901A03E0F91231D609
:1050500080148A828B8374D1F0EFA3F0EEF91231C1
:10506000A08003EFA3F002526F74F712243B89086B
:105070009004D1127601FF901E9DE0F47003A3E02E
:10508000F4702D9007BDE0901E9DF0A3E4F0802009
:105090008E828F83A31260F0600F8E828F83A3A312
:1050A0001260EDFAA9081235FC8E828F8312783BCC
:1050B000EE4F70DC901E9DE0F47003A3E0F4600AF4
:1050C000901E9DE0FAA9081235FC1241BA9019CD44
:1050D000125A391241B47F010226B974F012243BEE
:1050E000890B8C0C7509007508007410122C921233
:1050F00067EA7412122C921267DFFD80471251A5E5
:10510000F50EA3E0F50FAE08EE2EFEE433FFEA2E17
:10511000F582EB12741F650E7004A3E0650F701921
:10512000AE09EE2EFEE433FFEC2EF582ED3FF58363
:10513000E50EF0A3E50FF00509050AE50AC3950C95
:1051400040BB0508E508C3950B5005750A0080EBC8
:10515000A90980007F080226B974F412243B890B48
:105160007D00740C122C921267EA80010DEDC3953C
:105170000B502E750A008002050AE50AC39C50EC0C
:10518000ED25E0FEE433FFEA2EF582EB3F126A07DD
:105190001251A565087004A3E0650970DB790180F0
:1051A0000279008014AE0AEE2EFEE433FFE82EF5FD
:1051B00082E91259FC221229D67F040226B974F61C
:1051C00012243B1252597003A3E06D701775080C3E
:1051D00075091A78081229A8EEFA123734740212E7
:1051E00029D6801F75080275098078081229A88CB5
:1051F000088D0978081229A812524C1237587404E5
:105200001229D6806A74F612243B1252597003A3F5
:10521000E06D701775081975091A78081229A8EE3B
:10522000FA12373A74021229D6801F7508037509DD
:105230008078081229A88C088D0978081229A812EC
:10524000524C12375874041229D68023EE240E12C1
:1052500059F9FD7C8012648D22EAFEEBFF1264A4F2
:10526000FCE439FD9019CDE06C2274021229D67F3E
:10527000020226B974F612243B74FE122A84EAFE56
:10528000EBFF851882851983E4F0A31259F11263AC
:10529000CF1267DFFBECFA88828983A3A3E0F9755C
:1052A0000900750800600574FF6970057508828043
:1052B0003E9019CDE06A7003A3E06B701BAA18AB97
:1052C00019124862E9FA8518828519831267F47009
:1052D000037508838A098017901B1CE06004640131
:1052E00070057508818008E0640270037508808588
:1052F00018828519831267DFFDA908EEFAEFFB1209
:105300003740E50960118518828519831267F460BA
:1053100006126E0F12323C02526A74F212243BEAF9
:10532000FEEBFF7508007509001264A0F50AE43968
:10533000F50B1241BAEA650A7003EB650B701212A5
:105340004850E914F50879017A427B1A12484A80DC
:1053500003750980127419F50C780C1229AC750CC0
:1053600042750D1A780C1229A878081229AC780A0F
:105370001229A8E509F50878081229AC12626C1206
:10538000741CF97A057B80123746740702777074B3
:10539000F612243BE9FF7E0080328A828B83E0F59F
:1053A00008A3E0F8E4C8F9E50828E439F509EE2592
:1053B000E0F8E433F9EC28F582ED39F583E508F0FF
:1053C000A3E509F0EA2402FA50010B0EEEC39F4058
:1053D000C902526F74E812243B74FC122A848A16A4
:1053E0008B177511007402122C92E4F0A31265D68B
:1053F000F0A3F0125D3635171259C3F50B850A82FA
:10540000F5831278E6FEE439FF850A82850B83A3D3
:10541000A3E0FA850A82850B83A3A3A3E0F9EAF54A
:1054200008E439F509EEFAEFFB124256E96401602F
:1054300016EEFAEFFB124256E9703D9019CDE06E80
:105440007003A3E06F60311272271229ACE4F508F3
:10545000F50978081229A878081229AC9019CD12FC
:10546000280B75088078081229AC1257A912374604
:1054700074071229D602579F850A82850B83A3A33E
:10548000A3A3E0F510E50A2405F50A5002050BE593
:1054900010602B1277D91232367402122C92125AE3
:1054A000397402122C921267F460137402122C9257
:1054B0001257D1A91012362C8A0A8B0B8003751053
:1054C00000850A82850B8312778E60271277D912A6
:1054D0003236851882851983EAF0A3EB1267FAE861
:1054E0004960108518828519831257D1A90F123689
:1054F0002C8003750F009004D18052850A82850BA1
:1055000083A3A3A3A3A3A3A3A3E4F0A3F0AA0AAB3A
:105510000B851482851583A3A3E0F81260EDF912C0
:1055200031A0851282851383E0C0E0A8117442285F
:10553000F582E4341AF583D0E0F00511A20050079B
:10554000AA12AB1312323C851482851583E0F51440
:10555000A3E0F515E514451570030257178514826D
:10556000851583A31260F060DE851482851583A300
:10557000A3A3A3A3A3A3A3E0A2E050CB8514828599
:105580001583A3A3A3A31267F4851482851583A3AF
:10559000A3601E1260F1FA7901851482851583A338
:1055A000A3A3A31257C41226198A128B13D2008008
:1055B0000F1257C4A3A3A3E0F512A3E0F513C20092
:1055C000E5124513700302553C851282851383A3AF
:1055D000E065087004A3E06509600F74FF6508705A
:1055E0000474FF6509600302553C851282851383AC
:1055F000A3A3A3A3A3A3A312280B851282851383BD
:10560000A3A3A3A3A3A3E0FC7404122C92126E150F
:10561000A91012360E74021229D6E9703C85128246
:10562000851383A3A3A3A3A3A3A3A3A3A312280BBC
:10563000851282851383A3A3A3A3A3A3A3A3A3E09B
:10564000FC7402122C92126E15A90F12360E7402FF
:105650001229D6E9700302553CE50F2510C3332407
:105660000AFA7B001231948A0A8B0BEA450B70030D
:105670000255228A828B8374D2126A118A828B83AA
:10568000A3A3E8F0A3E912774AA3E5101278F4E5A2
:105690000FF0E510602C1276EE350BFB850A828543
:1056A0000B83125A347402122C921257DB1229A463
:1056B000AC10EC2CFCE433FD12317074031229D6CB
:1056C000800D8A828B83A3A3A3A3A3E4F0A3F0E5B8
:1056D0000F70030254FBA810E828F8E433F9E50A38
:1056E00028F8E50B39F9E81276EF39FB850A82854F
:1056F0000B83A3A3A3125A348518828519831257EA
:10570000DB1229A4AC0FEC2CFCE433FD12317074D5
:10571000031229D602550DE51160251272271229B0
:10572000AC75084275091A78081229A8E511F50820
:1057300078081229AC9019CD12280B750800802921
:10574000EEFAEFFB124256E9702F1272271229ACC3
:1057500075084275091A78081229A8750800780892
:105760001229AC9019CD12280B78081229AC1257C7
:10577000A912374674071229D67402122C921267A6
:10578000F4600B7402122C92126E1512323C8518C2
:10579000828519831267F46006126E0F12323C7410
:1057A000041229D67F100226B9E5162402FCE4353E
:1057B00017FDE516240FF582E43517F583E0F97A35
:1057C000067B80221257C822E0F8A3E0F583888286
:1057D00022E0FCA3E0FDAA0AAB0B22E0F50CA3E05B
:1057E000F50D750E00780C2274F112243B74F4123E
:1057F0002A848A088B09ECFEEDFF740B122C92743C
:1058000003F0122A461233381241B48A0A8B0BACC9
:105810000AAD0B7403122A46123332E9600FEE24EC
:105820001312741C64036010E06401600B8518821D
:1058300085198374840259728E828F83A3A3A3A3D4
:10584000A3A3A3A3E06018F46015EE241312741C44
:1058500064037016EE241412741C6003F4700B853C
:10586000188285198374820259721275D5E06421F9
:105870007002A3E060030259498518828519837478
:105880008C1259F1640360030259337401122A4ED9
:105890001274E1123EDEE960030259331235728A56
:1058A0000A8B0BEA450B70030259738E0C8F0D7532
:1058B0000E00780C1229A47C157D0012317074033F
:1058C0001229D6850882850983A3A3E50A2415FC3D
:1058D000E4350BFD74091229041271F0C0E0E50AE9
:1058E000241E1259B0D0E0125E16C0E0E50A241F53
:1058F0001259B0D0E0F0E50A24201259B07405F036
:10590000EE240BFE50010FFAEFFB12478A7D007C5C
:10591000007900EEFAEFFB1236FE9080E3122807C2
:105920007A007B10901A03E0F91232F07404122905
:10593000D680781259B81229AC1259CB123EC074D5
:10594000011229D6E9702C80141259B81229AC1210
:1059500059CB123EC674011229D6E9700D85188202
:10596000851983E4F01235428009851882851983F0
:105970007488F01271F0F50A780A1229AC740112D9
:105980002A3E880A890B780A1229A8E508240CF512
:1059900082E435091259C34480F50B780A1229A80C
:1059A00012633F1236F274051229D6740C026D3E52
:1059B000F582E4350BF58322EE24141259F9F50A29
:1059C000780A22F583E0F50AA3E022EE240BFCE43A
:1059D0003FFD8E828F83A3A3A3A3A3A3A3A3A3129C
:1059E0006E528E828F83A3A3A3A3A3A3A3A3E0F9E4
:1059F00022F0EE24131259F922F582E43FF583E0F8
:105A000022C082C08374F3122A8485188285198388
:105A1000E4F004122C92125A397403122C92AA82C6
:105A2000AB83123A70AA18AB19123AAC740D122952
:105A3000D60263E5A3A3A3A3A3EAF0A3EBF0227429
:105A4000F612243B1263BCFAA3E0F9EAF8901A14A8
:105A5000E058F508A3E059F509E5084509601C7808
:105A6000081229A89019CD12280B127419FD7C0078
:105A700012648912375274041229D602526F74EAE2
:105A800012243B74DB122A848A148B15751200755C
:105A90001300125D363515F5831260F1F50EAC1862
:105AA000AD197A007B00799C123BEA7A04790012E6
:105AB0003AD6EAF50C851882851983E02AF0F8E5D4
:105AC0000EC3984003025CA8E0C3950EF509C39489
:105AD000044003750903E50975F01AA4FAABF01246
:105AE00032368A128B13EA45137003025CAB750DD4
:105AF00000AE12AF13850E08025B7F7C087D007933
:105B0000FF125D2B12317C850A82850B83A3A3A330
:105B1000A3E0702D850A82850B831267F4700C1246
:105B2000740EF0EE24181274118010125D3BF09088
:105B30001CBEE014C0E0125D0BD0E0125D74E48086
:105B400034901CBEE004C0E0125D0BD0E0125D6733
:105B5000C39403EE4003025C0B1273FF7402125DE8
:105B60006764017003025C18EE2415125D3EF0EECE
:105B70002416125D3EF0EE241AFE50010F050DE5CD
:105B80000DC395094003025C43E508C3950C40032F
:105B9000025C21AA087B00123B248A0A8B0B0508B1
:105BA000901CAB125D53123338850A82850B831229
:105BB00067EA125D19E8F0A3E9125D84850A82851F
:105BC0000B83A3A3A3A3A3A3A3A3A3A3E0C0E01257
:105BD0005D01D0E0F07401122C92E4F0850A828518
:105BE0000B831267EA7402122C92125D4D7401123B
:105BF0002A46123A9AE964016003025AFB740412BD
:105C00002C92125D27123338025B07125D3C125D45
:105C10006764036003025B68EE2415127411025B73
:105C20006EE50CC3950E4005750800801DE50EC39A
:105C3000950CF5088014125D3BF0EE241AFE50011D
:105C40000F050DE50DC395095061740E122A4EAA79
:105C5000087B007987123BEA05087418122C92120F
:105C60005D531233387410122C92125D27123338A0
:105C7000EE2412F8E43FF9740E122C92126E15887D
:105C8000828983EAF0A3EB125D747403125D84745D
:105C90001D122C92E0C0E0125D01D0E01276E1E826
:105CA00049709312740E8091750900750A00780A84
:105CB0001229AC78121229A878091229ACE50EF540
:105CC0000978091229AC7405122C92E0FD7C00E5DC
:105CD000141275ED3515FBE5141274083515F583AE
:105CE000E0F912378E74051229D6E51245136007C4
:105CF000AA12AB1312323C74251229D67F0E02264B
:105D0000B9EE2419F582E43FF58322125D0F22EEED
:105D10002418F582E43FF58322EE125D1E22241240
:105D2000F582E43FF58322AC82AD83EE1276EF3F3D
:105D3000FB228A088B09EA12778822EE2414F58266
:105D4000E43FF583740122F582E43FF583E8F0A394
:105D5000E9F02212742CE8F0A3E9F07CBF7D1CEE80
:105D60002402FAE43FFB22F0850A82850B83A3A379
:105D7000A3A3E0221274527402F0EE2416F582E41A
:105D80003FF58322F0EE2417F582E43FF583740299
:105D9000F0125D0F74FFF02274F612243B74F912B6
:105DA0002A84125D32350912797F123188EAF8EBC4
:105DB000F9ECFAEDFB851882851983122C7B8E8213
:105DC0008F83A3A3A3A3E0C0E07404122C92D0E0BD
:105DD000127719F87405122C927401F07406122CC3
:105DE000927401F09019D7F09019E0041274F8FA47
:105DF000A3E0FB9019D8125A39E89019E1125E1607
:105E00009019D6F0AA18AB19123B8AE96003123B2D
:105E100090740702526CF0E508240F1271F8227496
:105E2000F212243B74FF122A847508007E007F0062
:105E30001240DC8A0A8B0B1240DC8A0C8B0DA80CFA
:105E4000A90D80080508125FB51267EAE84970F4E9
:105E5000901B1CE0600764016003025F2B1240DCB2
:105E60008A0C8B0DA80CA90D8006125FB51267EA8B
:105E7000E849603388828983126E15901CABE06A12
:105E80007003A3E06B600A125FB5126E15EA4B70E7
:105E9000D9888289831267EA901CABE0687003A3FB
:105EA000E0697003025F2B7A167B001232368A0C8F
:105EB0008B0DAE0CAF0DEE4F6071901CAB127428C1
:105EC000125D4D901CA0127423A3F012423EE98E85
:105ED000828F83A3A3A3A3A3F0901EBB127423A35A
:105EE000A3A3A3A3F07CBF7D1C1274E1123338AAD4
:105EF00018AB19794112394A851882851983E060F7
:105F0000089019CD1267EA800478FE79FF8E828F9F
:105F100083A3A3A3A3A3A3A3125D4D1273FEE50A5B
:105F2000F0A3E50BF08E0A8F0B05089019E1E0F85D
:105F3000E508C398500479008029E508C398F9C39F
:105F40009406400279057800800FE50A2414F58252
:105F5000E4350B1259C3F50B089019E1E0FAE8C3D8
:105F60009A40E775090078091229AC780A1229A825
:105F7000E9F50978091229AC9019E1E0F5097809E9
:105F80001229ACAD087C007AD87B199019D6E0F9BB
:105F900012378874051229D6901B1CE06004640136
:105FA000700BEE4F6007EEFAEFFB12323C123B90A3
:105FB0007401027770E82414F582E439F5832274C1
:105FC000F012243B74FF122A848A0A8B0B7E008E07
:105FD0000E8E0F125D361259B31260F1FFAC18AD80
:105FE000197A007B00799D123BEA85188285198316
:105FF000E0F8EFC3984003026098E0C39FFEC394AB
:106000000B40027E0AEE75F007A4FAABF0123236AE
:106010008A088B098A0E8B0FEA450F6079750C0090
:10602000801A850882850983A3A3A3A3A37403F020
:10603000E5082407F50850020509050CE50CC39E88
:106040005056AC08AD09E50C2FFAE43400FB798B0F
:10605000123BEA850882850983A3A3A3A3A3E014C6
:10606000600814601314601F80B885088285098356
:10607000A3A3A3A3A3E480B7850882850983A3A370
:10608000A3A3A3740180A8850882850983A3A3A381
:10609000A3A3740280997E0075080078081229ACC9
:1060A000780E1229A8EEF50878081229ACEFF50849
:1060B00078081229AC7405122C92E0FD7C00E50AE8
:1060C0001275ED350BFBE50A1274081259B3E0F9AD
:1060D00012379474051229D6E50E450F6007AA0EF3
:1060E000AB0F12323C74011229D60251541257CA16
:1060F000A31257C8E02274EE12243B74FE122A84C5
:106100008A0C8B0D751000751100125D36350DF57A
:10611000831260F1F50AAC18AD197A007B0079A3FF
:10612000123ECC1267E4C3E50A98E499507A8518C8
:1061300082851983A80AE0C398FEA3E09400FFC3F8
:10614000EE9404EF940040067E037F008004EE4F3F
:106150006056EEFAEFFBEA75F015A4FAA8F075F0B8
:1061600015EBA428FB1232368A088B098A108B1192
:10617000EA45116033750B00750E00801FAC08AD49
:1061800009A80AE50E28FAE43400FB79A2123ECCF5
:10619000E5082415F50850020509050EC3E50E9E15
:1061A000E49F40D9EEF98005750B8B7900750800E6
:1061B00078081229AC78101229A8E9F50878081295
:1061C00029ACE50AF50878081229AC7405122C925E
:1061D000E0FDAC0BE50C1275ED350DFBE50C127412
:1061E00008350DF583E0F912379A74051229D6E5C2
:1061F0001045116007AA10AB1112323C740212292B
:10620000D67F0A0226B974F612243B74FF122A8440
:10621000EAFEEBFFEE125D373F127606A3A3A3A3BF
:10622000A3A3A3A3E0F9123BAEE9851882851983E5
:10623000F075080078081229AC7401122A3E88080B
:10624000890978081229A875083575098078081217
:1062500029A81262621236F274051229D67401025C
:10626000526C790112626CFAE43FFB22EE2402FCCC
:10627000E43FFDEE240F2274F412243B74FA122A38
:1062800084125D32126F51127601FFEEFAEFFB12AB
:106290003A76E960171241B48A0A8B0BAC0AAD0B4F
:1062A000EEFAEFFB123332E96401700A7401122C2A
:1062B00092E4F0A380097401122C92EEF0A3EF1285
:1062C000770EA3A3A3A3E0F8A2E650087403122C50
:1062D000927401F0E8A2E750087404122C92740141
:1062E000F07405122C92E4F004122A46123BDEE907
:1062F000851882851983F09080E7122C631241D8AB
:106300007A007B001241E47A007B001241DE750ABC
:1063100000780A1229AC7401122A3E880A890B7887
:106320000A1229A8750A34750B80780A1229A81256
:10633000633F1236F274051229D674060251B679FB
:1063400001E5082402FCE43509FDE508240FFAE420
:106350003509FB2274F612243B74FF122A8412635F
:10636000BCF509A3E0F508A909123B9CE985188250
:10637000851983F0901B1CE0700B74016508700593
:10638000A909123854EE240B12741C702C750800E5
:1063900078081229AC7401122A3E88088909780805
:1063A0001229A875083675098078081229A8126282
:1063B000621236F274051229D602625DEAFEEBFF24
:1063C0001264AE1263C7221263CCE022F583E0F8B8
:1063D000A3E0F98882898322C082C083901B1CE0DD
:1063E000700312385AD083D08202298874F41224A0
:1063F0003B74EF122A84EAFEEBFF1264A0F508E476
:1064000039F5099019CDE065087004A3E0650970BD
:1064100052A818A919880A890B780A1229A8750A9E
:1064200011750B00780A1229A87C007D007A817B07
:10643000001232C074041229D6E97027750A007858
:106440000A1229AC7401122A3E880A890B780A12B2
:1064500029A8AC08AD0912648912374C74031229BB
:10646000D68021750A11750B80780A1229A8780840
:106470001229A8127419FD7C841264891237587489
:10648000041229D674110251B612648D22EE240230
:10649000FAE43FFBEE240FF582E43FF583E0F922B6
:1064A0001264A4221264AE1263CC1278EA22EE12B5
:1064B00077883F2274F112243B74EB122A84126312
:1064C000BCFCA3E0FAE4CAFBEC2AF508E43BF509BE
:1064D0009019CDE065087004A3E0650960030265CA
:1064E0007D88828983A3A3E09410500F88828983DA
:1064F000A3A3E085188285198380088518828519F1
:10650000837410F0E0C0E07404122C92D0E0127595
:10651000F2A982AA83890C8A0D750E00780C1229C3
:10652000A47407122C92E0FC7D007408122C92AA2D
:1065300082AB8312317074031229D67404122A3E7E
:10654000880A890B780A1229A8750A11750B007838
:106550000A1229A87C007D007A817B001232BA746D
:10656000041229D67404122C92E0901A0C6005E0F3
:10657000D2E48003E0C2E41265D6E4800885188284
:106580008519837484F0E0C0E07401122C92D0E08D
:10659000F07402122C92E508F07403122C92E508B4
:1065A000F01277263F1272301229AC7402122A3E82
:1065B0008808890978081229A8750814750980784F
:1065C000081229A879031262641236F2740512299E
:1065D000D67415026D3EF08518828519832274F6F3
:1065E00012243B74E0122A84EAFEEBFF901CADE01B
:1065F00064086008E0640460030267D3AC18AD1956
:106600001236DA901B1CE06402702F1241B474023F
:10661000122C92AC82AD83123332E9601D1241BA62
:106620008A088B09A808A909851882851983E0685A
:106630007003A3E06970030267D3124388740212E7
:106640002C92AC82AD83126E0F124286E964017007
:10665000030267D37418122A461241C67402122C20
:1066600092AC82AD837418122A46123332E9602C40
:106670001241C08A088B09A808A9098518828519C2
:1066800083E0687003A3E06960121267E4901CA1C4
:10669000125D4D7AA17B1C794B123950901B1CE086
:1066A0006004640170731241BA8A088B09A808A9B2
:1066B00009EE241112741C687003A3E069605A7417
:1066C00002122C92AA82AB83123B008A088B09A883
:1066D00008A909E849602688828983A3A3A3A3E0C7
:1066E0006401600D88828983A3A3A3A3E064027080
:1066F0000C7402122C92AA82AB83123B0C901D3BAD
:106700001267F46014901B10E06401700C126E0F9D
:10671000901D3C1257CB1226197900126E0F123DB4
:106720002E901CAB1267DFFD126E0F124340740BEC
